{
  "contractName": "DACOMain",
  "abi": [
    {
      "constant": true,
      "inputs": [
        {
          "name": "",
          "type": "uint256"
        }
      ],
      "name": "proposalsHash",
      "outputs": [
        {
          "name": "",
          "type": "bytes32"
        }
      ],
      "payable": false,
      "stateMutability": "view",
      "type": "function"
    },
    {
      "constant": true,
      "inputs": [
        {
          "name": "",
          "type": "uint256"
        }
      ],
      "name": "finishedCampaignsHash",
      "outputs": [
        {
          "name": "",
          "type": "bytes32"
        }
      ],
      "payable": false,
      "stateMutability": "view",
      "type": "function"
    },
    {
      "constant": true,
      "inputs": [
        {
          "name": "",
          "type": "uint256"
        }
      ],
      "name": "membersAddr",
      "outputs": [
        {
          "name": "",
          "type": "address"
        }
      ],
      "payable": false,
      "stateMutability": "view",
      "type": "function"
    },
    {
      "constant": true,
      "inputs": [
        {
          "name": "",
          "type": "uint256"
        }
      ],
      "name": "campaignsHash",
      "outputs": [
        {
          "name": "",
          "type": "bytes32"
        }
      ],
      "payable": false,
      "stateMutability": "view",
      "type": "function"
    },
    {
      "constant": true,
      "inputs": [],
      "name": "minimumQuorum",
      "outputs": [
        {
          "name": "",
          "type": "uint256"
        }
      ],
      "payable": false,
      "stateMutability": "view",
      "type": "function"
    },
    {
      "constant": true,
      "inputs": [],
      "name": "owner",
      "outputs": [
        {
          "name": "",
          "type": "address"
        }
      ],
      "payable": false,
      "stateMutability": "view",
      "type": "function"
    },
    {
      "constant": true,
      "inputs": [],
      "name": "majorityMargin",
      "outputs": [
        {
          "name": "",
          "type": "uint256"
        }
      ],
      "payable": false,
      "stateMutability": "view",
      "type": "function"
    },
    {
      "constant": true,
      "inputs": [],
      "name": "refundCharityFabric",
      "outputs": [
        {
          "name": "",
          "type": "address"
        }
      ],
      "payable": false,
      "stateMutability": "view",
      "type": "function"
    },
    {
      "constant": false,
      "inputs": [
        {
          "name": "newOwner",
          "type": "address"
        }
      ],
      "name": "transferOwnership",
      "outputs": [],
      "payable": false,
      "stateMutability": "nonpayable",
      "type": "function"
    },
    {
      "inputs": [
        {
          "name": "_refundCharityFabric",
          "type": "address"
        }
      ],
      "payable": false,
      "stateMutability": "nonpayable",
      "type": "constructor"
    },
    {
      "anonymous": false,
      "inputs": [
        {
          "indexed": true,
          "name": "sender",
          "type": "address"
        },
        {
          "indexed": true,
          "name": "hash",
          "type": "bytes32"
        },
        {
          "indexed": false,
          "name": "description",
          "type": "string"
        },
        {
          "indexed": false,
          "name": "link",
          "type": "string"
        }
      ],
      "name": "ProposalAdded",
      "type": "event"
    },
    {
      "anonymous": false,
      "inputs": [
        {
          "indexed": true,
          "name": "sender",
          "type": "address"
        },
        {
          "indexed": true,
          "name": "hash",
          "type": "bytes32"
        },
        {
          "indexed": false,
          "name": "description",
          "type": "string"
        },
        {
          "indexed": false,
          "name": "link",
          "type": "string"
        }
      ],
      "name": "CampaignAdded",
      "type": "event"
    },
    {
      "anonymous": false,
      "inputs": [
        {
          "indexed": true,
          "name": "sender",
          "type": "address"
        },
        {
          "indexed": true,
          "name": "hash",
          "type": "bytes32"
        },
        {
          "indexed": true,
          "name": "owner",
          "type": "address"
        },
        {
          "indexed": false,
          "name": "description",
          "type": "string"
        },
        {
          "indexed": false,
          "name": "link",
          "type": "string"
        }
      ],
      "name": "ProposalPassed",
      "type": "event"
    },
    {
      "anonymous": false,
      "inputs": [
        {
          "indexed": true,
          "name": "sender",
          "type": "address"
        },
        {
          "indexed": true,
          "name": "hash",
          "type": "bytes32"
        },
        {
          "indexed": true,
          "name": "supportsProposal",
          "type": "bool"
        },
        {
          "indexed": false,
          "name": "comment",
          "type": "string"
        }
      ],
      "name": "Voted",
      "type": "event"
    },
    {
      "anonymous": false,
      "inputs": [
        {
          "indexed": true,
          "name": "sender",
          "type": "address"
        },
        {
          "indexed": true,
          "name": "hash",
          "type": "bytes32"
        },
        {
          "indexed": true,
          "name": "raisedAmount",
          "type": "uint256"
        },
        {
          "indexed": false,
          "name": "report",
          "type": "string"
        }
      ],
      "name": "FinishCampaign",
      "type": "event"
    },
    {
      "anonymous": false,
      "inputs": [
        {
          "indexed": true,
          "name": "sender",
          "type": "address"
        },
        {
          "indexed": true,
          "name": "hash",
          "type": "bytes32"
        },
        {
          "indexed": true,
          "name": "donation",
          "type": "address"
        }
      ],
      "name": "CreateDonationContract",
      "type": "event"
    },
    {
      "anonymous": false,
      "inputs": [
        {
          "indexed": true,
          "name": "member",
          "type": "address"
        },
        {
          "indexed": true,
          "name": "isMember",
          "type": "bool"
        }
      ],
      "name": "MembershipChanged",
      "type": "event"
    },
    {
      "anonymous": false,
      "inputs": [
        {
          "indexed": true,
          "name": "charityFabric",
          "type": "address"
        }
      ],
      "name": "CharityFabricChanged",
      "type": "event"
    },
    {
      "anonymous": false,
      "inputs": [
        {
          "indexed": true,
          "name": "minimumQuorum",
          "type": "uint256"
        },
        {
          "indexed": true,
          "name": "majorityMargin",
          "type": "uint256"
        }
      ],
      "name": "ChangeOfRules",
      "type": "event"
    },
    {
      "anonymous": false,
      "inputs": [
        {
          "indexed": true,
          "name": "previousOwner",
          "type": "address"
        },
        {
          "indexed": true,
          "name": "newOwner",
          "type": "address"
        }
      ],
      "name": "OwnershipTransferred",
      "type": "event"
    },
    {
      "constant": true,
      "inputs": [],
      "name": "numMembers",
      "outputs": [
        {
          "name": "",
          "type": "uint256"
        }
      ],
      "payable": false,
      "stateMutability": "view",
      "type": "function"
    },
    {
      "constant": true,
      "inputs": [],
      "name": "numCampaigns",
      "outputs": [
        {
          "name": "",
          "type": "uint256"
        }
      ],
      "payable": false,
      "stateMutability": "view",
      "type": "function"
    },
    {
      "constant": true,
      "inputs": [],
      "name": "numProposals",
      "outputs": [
        {
          "name": "",
          "type": "uint256"
        }
      ],
      "payable": false,
      "stateMutability": "view",
      "type": "function"
    },
    {
      "constant": true,
      "inputs": [],
      "name": "numFinishedCampaigns",
      "outputs": [
        {
          "name": "",
          "type": "uint256"
        }
      ],
      "payable": false,
      "stateMutability": "view",
      "type": "function"
    },
    {
      "constant": true,
      "inputs": [
        {
          "name": "_address",
          "type": "address"
        }
      ],
      "name": "getMember",
      "outputs": [
        {
          "name": "active",
          "type": "bool"
        },
        {
          "name": "isMember",
          "type": "bool"
        },
        {
          "name": "name",
          "type": "string"
        },
        {
          "name": "link",
          "type": "string"
        },
        {
          "name": "memberSince",
          "type": "uint256"
        },
        {
          "name": "countCampaigns",
          "type": "uint256"
        },
        {
          "name": "countFinishedCampaigns",
          "type": "uint256"
        }
      ],
      "payable": false,
      "stateMutability": "view",
      "type": "function"
    },
    {
      "constant": true,
      "inputs": [
        {
          "name": "_hash",
          "type": "bytes32"
        }
      ],
      "name": "getCampaignCommonInfo",
      "outputs": [
        {
          "name": "isProposal",
          "type": "bool"
        },
        {
          "name": "isCampaign",
          "type": "bool"
        },
        {
          "name": "isFinishedCampaign",
          "type": "bool"
        },
        {
          "name": "owner",
          "type": "address"
        },
        {
          "name": "endDate",
          "type": "uint256"
        },
        {
          "name": "amount",
          "type": "uint256"
        },
        {
          "name": "description",
          "type": "string"
        }
      ],
      "payable": false,
      "stateMutability": "view",
      "type": "function"
    },
    {
      "constant": true,
      "inputs": [
        {
          "name": "_hash",
          "type": "bytes32"
        }
      ],
      "name": "getCampaignProposalInfo",
      "outputs": [
        {
          "name": "isProposal",
          "type": "bool"
        },
        {
          "name": "link",
          "type": "string"
        },
        {
          "name": "countVotes",
          "type": "uint256"
        },
        {
          "name": "currentResult",
          "type": "uint256"
        },
        {
          "name": "proposalDate",
          "type": "uint256"
        },
        {
          "name": "proposalRejected",
          "type": "bool"
        }
      ],
      "payable": false,
      "stateMutability": "view",
      "type": "function"
    },
    {
      "constant": true,
      "inputs": [
        {
          "name": "_hash",
          "type": "bytes32"
        }
      ],
      "name": "getCampaignActiveInfo",
      "outputs": [
        {
          "name": "isCampaign",
          "type": "bool"
        },
        {
          "name": "link",
          "type": "string"
        },
        {
          "name": "countVotes",
          "type": "uint256"
        },
        {
          "name": "currentResult",
          "type": "uint256"
        },
        {
          "name": "proposalDate",
          "type": "uint256"
        },
        {
          "name": "campaignDate",
          "type": "uint256"
        },
        {
          "name": "donationContract",
          "type": "address"
        }
      ],
      "payable": false,
      "stateMutability": "view",
      "type": "function"
    },
    {
      "constant": true,
      "inputs": [
        {
          "name": "_hash",
          "type": "bytes32"
        }
      ],
      "name": "getCampaignFinishedInfo",
      "outputs": [
        {
          "name": "link",
          "type": "string"
        },
        {
          "name": "countVotes",
          "type": "uint256"
        },
        {
          "name": "campaignDate",
          "type": "uint256"
        },
        {
          "name": "finishDate",
          "type": "uint256"
        },
        {
          "name": "raisedAmount",
          "type": "uint256"
        },
        {
          "name": "report",
          "type": "string"
        },
        {
          "name": "donationContract",
          "type": "address"
        }
      ],
      "payable": false,
      "stateMutability": "view",
      "type": "function"
    },
    {
      "constant": true,
      "inputs": [
        {
          "name": "_hash",
          "type": "bytes32"
        }
      ],
      "name": "getCampaignIndexInfo",
      "outputs": [
        {
          "name": "indexProposal",
          "type": "uint256"
        },
        {
          "name": "indexCampaign",
          "type": "uint256"
        },
        {
          "name": "indexFinishedCampaign",
          "type": "uint256"
        }
      ],
      "payable": false,
      "stateMutability": "view",
      "type": "function"
    },
    {
      "constant": true,
      "inputs": [
        {
          "name": "_hash",
          "type": "bytes32"
        },
        {
          "name": "_index",
          "type": "uint256"
        }
      ],
      "name": "getCampaignVoteMemberAddress",
      "outputs": [
        {
          "name": "",
          "type": "address"
        }
      ],
      "payable": false,
      "stateMutability": "view",
      "type": "function"
    },
    {
      "constant": true,
      "inputs": [
        {
          "name": "_hashCampaign",
          "type": "bytes32"
        },
        {
          "name": "_addressMember",
          "type": "address"
        }
      ],
      "name": "getCampaignVoteObject",
      "outputs": [
        {
          "name": "supportsProposal",
          "type": "bool"
        },
        {
          "name": "sender",
          "type": "address"
        },
        {
          "name": "comment",
          "type": "string"
        }
      ],
      "payable": false,
      "stateMutability": "view",
      "type": "function"
    },
    {
      "constant": true,
      "inputs": [
        {
          "name": "_addressMember",
          "type": "address"
        },
        {
          "name": "_index",
          "type": "uint256"
        }
      ],
      "name": "getMemberCampaignAddress",
      "outputs": [
        {
          "name": "",
          "type": "bytes32"
        }
      ],
      "payable": false,
      "stateMutability": "view",
      "type": "function"
    },
    {
      "constant": true,
      "inputs": [
        {
          "name": "_addressMember",
          "type": "address"
        },
        {
          "name": "_index",
          "type": "uint256"
        }
      ],
      "name": "getMemberFinishedCampaignAddress",
      "outputs": [
        {
          "name": "",
          "type": "bytes32"
        }
      ],
      "payable": false,
      "stateMutability": "view",
      "type": "function"
    },
    {
      "constant": false,
      "inputs": [
        {
          "name": "_targetMember",
          "type": "address"
        },
        {
          "name": "_memberName",
          "type": "string"
        },
        {
          "name": "_memberLink",
          "type": "string"
        }
      ],
      "name": "addMember",
      "outputs": [],
      "payable": false,
      "stateMutability": "nonpayable",
      "type": "function"
    },
    {
      "constant": false,
      "inputs": [
        {
          "name": "_newCharityFabric",
          "type": "address"
        }
      ],
      "name": "setCharityFabric",
      "outputs": [],
      "payable": false,
      "stateMutability": "nonpayable",
      "type": "function"
    },
    {
      "constant": false,
      "inputs": [
        {
          "name": "_targetMember",
          "type": "address"
        }
      ],
      "name": "removeMember",
      "outputs": [],
      "payable": false,
      "stateMutability": "nonpayable",
      "type": "function"
    },
    {
      "constant": false,
      "inputs": [
        {
          "name": "_targetMember",
          "type": "address"
        }
      ],
      "name": "activateMember",
      "outputs": [],
      "payable": false,
      "stateMutability": "nonpayable",
      "type": "function"
    },
    {
      "constant": false,
      "inputs": [
        {
          "name": "_targetMember",
          "type": "address"
        }
      ],
      "name": "deactivateMember",
      "outputs": [],
      "payable": false,
      "stateMutability": "nonpayable",
      "type": "function"
    },
    {
      "constant": false,
      "inputs": [
        {
          "name": "_minimumQuorumForProposals",
          "type": "uint256"
        },
        {
          "name": "_marginOfVotesForMajority",
          "type": "uint256"
        }
      ],
      "name": "changeVotingRules",
      "outputs": [],
      "payable": false,
      "stateMutability": "nonpayable",
      "type": "function"
    },
    {
      "constant": false,
      "inputs": [
        {
          "name": "_wallets",
          "type": "address[]"
        },
        {
          "name": "_amounts",
          "type": "uint256[]"
        },
        {
          "name": "_endDate",
          "type": "uint256"
        },
        {
          "name": "_description",
          "type": "string"
        },
        {
          "name": "_link",
          "type": "string"
        }
      ],
      "name": "newProposal",
      "outputs": [
        {
          "name": "id",
          "type": "uint256"
        }
      ],
      "payable": false,
      "stateMutability": "nonpayable",
      "type": "function"
    },
    {
      "constant": false,
      "inputs": [
        {
          "name": "_wallets",
          "type": "address[]"
        },
        {
          "name": "_amounts",
          "type": "uint256[]"
        },
        {
          "name": "_endDate",
          "type": "uint256"
        },
        {
          "name": "_description",
          "type": "string"
        },
        {
          "name": "_link",
          "type": "string"
        },
        {
          "name": "_comment",
          "type": "string"
        }
      ],
      "name": "newCampaign",
      "outputs": [
        {
          "name": "",
          "type": "address"
        }
      ],
      "payable": false,
      "stateMutability": "nonpayable",
      "type": "function"
    },
    {
      "constant": false,
      "inputs": [
        {
          "name": "_hash",
          "type": "bytes32"
        },
        {
          "name": "_supportsProposal",
          "type": "bool"
        },
        {
          "name": "_comment",
          "type": "string"
        }
      ],
      "name": "vote",
      "outputs": [
        {
          "name": "",
          "type": "bool"
        }
      ],
      "payable": false,
      "stateMutability": "nonpayable",
      "type": "function"
    },
    {
      "constant": false,
      "inputs": [
        {
          "name": "_hash",
          "type": "bytes32"
        },
        {
          "name": "_raisedAmount",
          "type": "uint256"
        },
        {
          "name": "_report",
          "type": "string"
        }
      ],
      "name": "finishCampaign",
      "outputs": [
        {
          "name": "",
          "type": "bool"
        }
      ],
      "payable": false,
      "stateMutability": "nonpayable",
      "type": "function"
    }
  ],
  "bytecode": "0x60806040523480156200001157600080fd5b50604051602080620057e683398101806040528101908080519060200190929190505050336000806101000a81548173ffffffffffffffffffffffffffffffffffffffff021916908373ffffffffffffffffffffffffffffffffffffffff1602179055506200008f81620000b2640100000000026401000000009004565b620000ab600180620001de640100000000026401000000009004565b506200027e565b6000809054906101000a900473ffffffffffffffffffffffffffffffffffffffff1673ffffffffffffffffffffffffffffffffffffffff163373ffffffffffffffffffffffffffffffffffffffff161415156200010e57600080fd5b60008173ffffffffffffffffffffffffffffffffffffffff16141515156200013557600080fd5b80600260006101000a81548173ffffffffffffffffffffffffffffffffffffffff021916908373ffffffffffffffffffffffffffffffffffffffff160217905550600260009054906101000a900473ffffffffffffffffffffffffffffffffffffffff1673ffffffffffffffffffffffffffffffffffffffff167f7a9433a5c174277e7be4eaac6ad019893100456ae285225bcd980adb0dd9817f60405160405180910390a250565b6000809054906101000a900473ffffffffffffffffffffffffffffffffffffffff1673ffffffffffffffffffffffffffffffffffffffff163373ffffffffffffffffffffffffffffffffffffffff161415156200023a57600080fd5b81600181905550806003819055506003546001547f4e5482c936e2afb137e294316762dfae82eecfc2c31ab15d926766d513570ad760405160405180910390a35050565b615558806200028e6000396000f3006080604052600436106101a1576000357c0100000000000000000000000000000000000000000000000000000000900463ffffffff1680630b1ca49a146101a65780630c7bc7e2146101e9578063127cfde8146102f1578063155a1d4b1461033a578063158059e21461049f5780631a34f2a1146104d65780631a8bf3f71461056f5780632ada2596146105b85780632c0f7b6f1461070b5780633018c93514610736578063306061b8146108fb57806338d17a8214610926578063400e3949146109795780634698d110146109a4578063589b99c0146109cf57806362ea123314610adb57806376c1954614610b48578063783caa1d14610c1757806378ab262e14610c605780638160f0b514610ca35780638da5cb5b14610cce578063933467f114610d25578063aa02a90f14610dc0578063b22452fb14610deb578063b2a7554914610f3e578063b76b81d214610f95578063c09cb0c31461106a578063d4f3476d146110e5578063d9aee28d14611128578063ddac7e931461116b578063e651d4061461126f578063ebc3e9b0146112d8578063f2fde38b14611341575b600080fd5b3480156101b257600080fd5b506101e7600480360381019080803573ffffffffffffffffffffffffffffffffffffffff169060200190929190505050611384565b005b3480156101f557600080fd5b506102386004803603810190808035600019169060200190929190803573ffffffffffffffffffffffffffffffffffffffff16906020019092919050505061167d565b60405180841515151581526020018373ffffffffffffffffffffffffffffffffffffffff1673ffffffffffffffffffffffffffffffffffffffff16815260200180602001828103825283818151815260200191508051906020019080838360005b838110156102b4578082015181840152602081019050610299565b50505050905090810190601f1680156102e15780820380516001836020036101000a031916815260200191505b5094505050505060405180910390f35b3480156102fd57600080fd5b5061031c60048036038101908080359060200190929190505050611874565b60405180826000191660001916815260200191505060405180910390f35b34801561034657600080fd5b506103696004803603810190808035600019169060200190929190505050611897565b6040518080602001888152602001878152602001868152602001858152602001806020018473ffffffffffffffffffffffffffffffffffffffff1673ffffffffffffffffffffffffffffffffffffffff16815260200183810383528a818151815260200191508051906020019080838360005b838110156103f75780820151818401526020810190506103dc565b50505050905090810190601f1680156104245780820380516001836020036101000a031916815260200191505b50838103825285818151815260200191508051906020019080838360005b8381101561045d578082015181840152602081019050610442565b50505050905090810190601f16801561048a5780820380516001836020036101000a031916815260200191505b50995050505050505050505060405180910390f35b3480156104ab57600080fd5b506104d46004803603810190808035906020019092919080359060200190929190505050611aee565b005b3480156104e257600080fd5b50610555600480360381019080803560001916906020019092919080359060200190929190803590602001908201803590602001908080601f0160208091040260200160405190810160405280939291908181526020018383808284378201915050505050509192919290505050611b8d565b604051808215151515815260200191505060405180910390f35b34801561057b57600080fd5b5061059a6004803603810190808035906020019092919050505061212f565b60405180826000191660001916815260200191505060405180910390f35b3480156105c457600080fd5b506105f9600480360381019080803573ffffffffffffffffffffffffffffffffffffffff169060200190929190505050612152565b6040518088151515158152602001871515151581526020018060200180602001868152602001858152602001848152602001838103835288818151815260200191508051906020019080838360005b83811015610663578082015181840152602081019050610648565b50505050905090810190601f1680156106905780820380516001836020036101000a031916815260200191505b50838103825287818151815260200191508051906020019080838360005b838110156106c95780820151818401526020810190506106ae565b50505050905090810190601f1680156106f65780820380516001836020036101000a031916815260200191505b50995050505050505050505060405180910390f35b34801561071757600080fd5b506107206124a1565b6040518082815260200191505060405180910390f35b34801561074257600080fd5b506108b9600480360381019080803590602001908201803590602001908080602002602001604051908101604052809392919081815260200183836020028082843782019150505050505091929192908035906020019082018035906020019080806020026020016040519081016040528093929190818152602001838360200280828437820191505050505050919291929080359060200190929190803590602001908201803590602001908080601f0160208091040260200160405190810160405280939291908181526020018383808284378201915050505050509192919290803590602001908201803590602001908080601f0160208091040260200160405190810160405280939291908181526020018383808284378201915050505050509192919290803590602001908201803590602001908080601f01602080910402602001604051908101604052809392919081815260200183838082843782019150505050505091929192905050506124ae565b604051808273ffffffffffffffffffffffffffffffffffffffff1673ffffffffffffffffffffffffffffffffffffffff16815260200191505060405180910390f35b34801561090757600080fd5b50610910612d64565b6040518082815260200191505060405180910390f35b34801561093257600080fd5b506109556004803603810190808035600019169060200190929190505050612d71565b60405180848152602001838152602001828152602001935050505060405180910390f35b34801561098557600080fd5b5061098e612de0565b6040518082815260200191505060405180910390f35b3480156109b057600080fd5b506109b9612ded565b6040518082815260200191505060405180910390f35b3480156109db57600080fd5b506109fe6004803603810190808035600019169060200190929190505050612dfa565b604051808815151515815260200187151515158152602001861515151581526020018573ffffffffffffffffffffffffffffffffffffffff1673ffffffffffffffffffffffffffffffffffffffff16815260200184815260200183815260200180602001828103825283818151815260200191508051906020019080838360005b83811015610a9a578082015181840152602081019050610a7f565b50505050905090810190601f168015610ac75780820380516001836020036101000a031916815260200191505b509850505050505050505060405180910390f35b348015610ae757600080fd5b50610b0660048036038101908080359060200190929190505050612fd9565b604051808273ffffffffffffffffffffffffffffffffffffffff1673ffffffffffffffffffffffffffffffffffffffff16815260200191505060405180910390f35b348015610b5457600080fd5b50610c15600480360381019080803573ffffffffffffffffffffffffffffffffffffffff169060200190929190803590602001908201803590602001908080601f0160208091040260200160405190810160405280939291908181526020018383808284378201915050505050509192919290803590602001908201803590602001908080601f0160208091040260200160405190810160405280939291908181526020018383808284378201915050505050509192919290505050613017565b005b348015610c2357600080fd5b50610c426004803603810190808035906020019092919050505061341a565b60405180826000191660001916815260200191505060405180910390f35b348015610c6c57600080fd5b50610ca1600480360381019080803573ffffffffffffffffffffffffffffffffffffffff16906020019092919050505061343d565b005b348015610caf57600080fd5b50610cb8613598565b6040518082815260200191505060405180910390f35b348015610cda57600080fd5b50610ce361359e565b604051808273ffffffffffffffffffffffffffffffffffffffff1673ffffffffffffffffffffffffffffffffffffffff16815260200191505060405180910390f35b348015610d3157600080fd5b50610da66004803603810190808035600019169060200190929190803515159060200190929190803590602001908201803590602001908080601f01602080910402602001604051908101604052809392919081815260200183838082843782019150505050505091929192905050506135c3565b604051808215151515815260200191505060405180910390f35b348015610dcc57600080fd5b50610dd561400c565b6040518082815260200191505060405180910390f35b348015610df757600080fd5b50610f28600480360381019080803590602001908201803590602001908080602002602001604051908101604052809392919081815260200183836020028082843782019150505050505091929192908035906020019082018035906020019080806020026020016040519081016040528093929190818152602001838360200280828437820191505050505050919291929080359060200190929190803590602001908201803590602001908080601f0160208091040260200160405190810160405280939291908181526020018383808284378201915050505050509192919290803590602001908201803590602001908080601f0160208091040260200160405190810160405280939291908181526020018383808284378201915050505050509192919290505050614012565b6040518082815260200191505060405180910390f35b348015610f4a57600080fd5b50610f5361453d565b604051808273ffffffffffffffffffffffffffffffffffffffff1673ffffffffffffffffffffffffffffffffffffffff16815260200191505060405180910390f35b348015610fa157600080fd5b50610fc46004803603810190808035600019169060200190929190505050614563565b60405180871515151581526020018060200186815260200185815260200184815260200183151515158152602001828103825287818151815260200191508051906020019080838360005b8381101561102a57808201518184015260208101905061100f565b50505050905090810190601f1680156110575780820380516001836020036101000a031916815260200191505b5097505050505050505060405180910390f35b34801561107657600080fd5b506110a36004803603810190808035600019169060200190929190803590602001909291905050506146f4565b604051808273ffffffffffffffffffffffffffffffffffffffff1673ffffffffffffffffffffffffffffffffffffffff16815260200191505060405180910390f35b3480156110f157600080fd5b50611126600480360381019080803573ffffffffffffffffffffffffffffffffffffffff169060200190929190505050614754565b005b34801561113457600080fd5b50611169600480360381019080803573ffffffffffffffffffffffffffffffffffffffff1690602001909291905050506148af565b005b34801561117757600080fd5b5061119a60048036038101908080356000191690602001909291905050506149d9565b6040518088151515158152602001806020018781526020018681526020018581526020018481526020018373ffffffffffffffffffffffffffffffffffffffff1673ffffffffffffffffffffffffffffffffffffffff168152602001828103825288818151815260200191508051906020019080838360005b8381101561122e578082015181840152602081019050611213565b50505050905090810190601f16801561125b5780820380516001836020036101000a031916815260200191505b509850505050505050505060405180910390f35b34801561127b57600080fd5b506112ba600480360381019080803573ffffffffffffffffffffffffffffffffffffffff16906020019092919080359060200190929190505050614ba2565b60405180826000191660001916815260200191505060405180910390f35b3480156112e457600080fd5b50611323600480360381019080803573ffffffffffffffffffffffffffffffffffffffff16906020019092919080359060200190929190505050614c06565b60405180826000191660001916815260200191505060405180910390f35b34801561134d57600080fd5b50611382600480360381019080803573ffffffffffffffffffffffffffffffffffffffff169060200190929190505050614c6a565b005b6000806000809054906101000a900473ffffffffffffffffffffffffffffffffffffffff1673ffffffffffffffffffffffffffffffffffffffff163373ffffffffffffffffffffffffffffffffffffffff161415156113e257600080fd5b600460008473ffffffffffffffffffffffffffffffffffffffff1673ffffffffffffffffffffffffffffffffffffffff16815260200190815260200160002060000160159054906101000a900460ff16151561143d57600080fd5b6000600460008573ffffffffffffffffffffffffffffffffffffffff1673ffffffffffffffffffffffffffffffffffffffff16815260200190815260200160002060000160146101000a81548160ff0219169083151502179055506000600460008573ffffffffffffffffffffffffffffffffffffffff1673ffffffffffffffffffffffffffffffffffffffff16815260200190815260200160002060000160156101000a81548160ff021916908315150217905550600460008473ffffffffffffffffffffffffffffffffffffffff1673ffffffffffffffffffffffffffffffffffffffff168152602001908152602001600020600601549150600560016005805490500381548110151561154f57fe5b9060005260206000200160009054906101000a900473ffffffffffffffffffffffffffffffffffffffff1690508060058381548110151561158c57fe5b9060005260206000200160006101000a81548173ffffffffffffffffffffffffffffffffffffffff021916908373ffffffffffffffffffffffffffffffffffffffff16021790555081600460008373ffffffffffffffffffffffffffffffffffffffff1673ffffffffffffffffffffffffffffffffffffffff1681526020019081526020016000206006018190555060058054809190600190036116309190615236565b50600015158373ffffffffffffffffffffffffffffffffffffffff167f27b022af4a8347100c7a041ce5ccf8e14d644ff05de696315196faae8cd50c9b60405160405180910390a3505050565b6000806060600660008660001916600019168152602001908152602001600020600d0160008573ffffffffffffffffffffffffffffffffffffffff1673ffffffffffffffffffffffffffffffffffffffff16815260200190815260200160002060000160009054906101000a900460ff16600660008760001916600019168152602001908152602001600020600d0160008673ffffffffffffffffffffffffffffffffffffffff1673ffffffffffffffffffffffffffffffffffffffff16815260200190815260200160002060000160019054906101000a900473ffffffffffffffffffffffffffffffffffffffff16600660008860001916600019168152602001908152602001600020600d0160008773ffffffffffffffffffffffffffffffffffffffff1673ffffffffffffffffffffffffffffffffffffffff168152602001908152602001600020600101808054600181600116156101000203166002900480601f0160208091040260200160405190810160405280929190818152602001828054600181600116156101000203166002900480156118605780601f1061183557610100808354040283529160200191611860565b820191906000526020600020905b81548152906001019060200180831161184357829003601f168201915b505050505090509250925092509250925092565b60088181548110151561188357fe5b906000526020600020016000915090505481565b606060008060008060606000600660008960001916600019168152602001908152602001600020600901600660008a60001916600019168152602001908152602001600020600b0180549050600660008b6000191660001916815260200190815260200160002060120154600660008c6000191660001916815260200190815260200160002060140154600660008d6000191660001916815260200190815260200160002060150154600660008e60001916600019168152602001908152602001600020601601600660008f60001916600019168152602001908152602001600020600a0160009054906101000a900473ffffffffffffffffffffffffffffffffffffffff16868054600181600116156101000203166002900480601f016020809104026020016040519081016040528092919081815260200182805460018160011615610100020316600290048015611a325780601f10611a0757610100808354040283529160200191611a32565b820191906000526020600020905b815481529060010190602001808311611a1557829003601f168201915b50505050509650818054600181600116156101000203166002900480601f016020809104026020016040519081016040528092919081815260200182805460018160011615610100020316600290048015611ace5780601f10611aa357610100808354040283529160200191611ace565b820191906000526020600020905b815481529060010190602001808311611ab157829003601f168201915b505050505091509650965096509650965096509650919395979092949650565b6000809054906101000a900473ffffffffffffffffffffffffffffffffffffffff1673ffffffffffffffffffffffffffffffffffffffff163373ffffffffffffffffffffffffffffffffffffffff16141515611b4957600080fd5b81600181905550806003819055506003546001547f4e5482c936e2afb137e294316762dfae82eecfc2c31ab15d926766d513570ad760405160405180910390a35050565b6000806000600460003373ffffffffffffffffffffffffffffffffffffffff1673ffffffffffffffffffffffffffffffffffffffff16815260200190815260200160002060000160159054906101000a900460ff161515611bed57600080fd5b600460003373ffffffffffffffffffffffffffffffffffffffff1673ffffffffffffffffffffffffffffffffffffffff16815260200190815260200160002060000160149054906101000a900460ff161515611c4857600080fd5b60066000876000191660001916815260200190815260200160002060000160009054906101000a900460ff16151515611c8057600080fd5b60066000876000191660001916815260200190815260200160002060000160019054906101000a900460ff161515611cb757600080fd5b60066000876000191660001916815260200190815260200160002060000160029054906101000a900460ff16151515611cef57600080fd5b600660008760001916600019168152602001908152602001600020600c0160003373ffffffffffffffffffffffffffffffffffffffff1673ffffffffffffffffffffffffffffffffffffffff16815260200190815260200160002060009054906101000a900460ff161515611d6357600080fd5b60066000876000191660001916815260200190815260200160002060110160009054906101000a900460ff16151515611d9b57600080fd5b6006600087600019166000191681526020019081526020016000206002015491506007600160078054905003815481101515611dd357fe5b9060005260206000200154905080600783815481101515611df057fe5b90600052602060002001816000191690555081600660008360001916600019168152602001908152602001600020600201819055506007805480919060019003611e3a9190615262565b506000600660008860001916600019168152602001908152602001600020600101819055506000600660008860001916600019168152602001908152602001600020600201819055506001600987908060018154018082558091505090600182039060005260206000200160009091929091909150906000191690550360066000886000191660001916815260200190815260200160002060030181905550600060066000886000191660001916815260200190815260200160002060000160006101000a81548160ff021916908315150217905550600060066000886000191660001916815260200190815260200160002060000160016101000a81548160ff021916908315150217905550600160066000886000191660001916815260200190815260200160002060000160026101000a81548160ff02191690831515021790555042600660008860001916600019168152602001908152602001600020601401819055508460066000886000191660001916815260200190815260200160002060150181905550836006600088600019166000191681526020019081526020016000206016019080519060200190611ff692919061528e565b50600460003373ffffffffffffffffffffffffffffffffffffffff1673ffffffffffffffffffffffffffffffffffffffff1681526020019081526020016000206005018690806001815401808255809150509060018203906000526020600020016000909192909190915090600019169055508486600019163373ffffffffffffffffffffffffffffffffffffffff167f0735fb388a07c4d6cf531ec223f92ec909053c1f8292542048fa29646610822b876040518080602001828103825283818151815260200191508051906020019080838360005b838110156120e85780820151818401526020810190506120cd565b50505050905090810190601f1680156121155780820380516001836020036101000a031916815260200191505b509250505060405180910390a46001925050509392505050565b60098181548110151561213e57fe5b906000526020600020016000915090505481565b6000806060806000806000600460008973ffffffffffffffffffffffffffffffffffffffff1673ffffffffffffffffffffffffffffffffffffffff16815260200190815260200160002060000160149054906101000a900460ff16600460008a73ffffffffffffffffffffffffffffffffffffffff1673ffffffffffffffffffffffffffffffffffffffff16815260200190815260200160002060000160159054906101000a900460ff16600460008b73ffffffffffffffffffffffffffffffffffffffff1673ffffffffffffffffffffffffffffffffffffffff168152602001908152602001600020600101600460008c73ffffffffffffffffffffffffffffffffffffffff1673ffffffffffffffffffffffffffffffffffffffff168152602001908152602001600020600201600460008d73ffffffffffffffffffffffffffffffffffffffff1673ffffffffffffffffffffffffffffffffffffffff16815260200190815260200160002060030154600460008e73ffffffffffffffffffffffffffffffffffffffff1673ffffffffffffffffffffffffffffffffffffffff16815260200190815260200160002060040180549050600460008f73ffffffffffffffffffffffffffffffffffffffff1673ffffffffffffffffffffffffffffffffffffffff16815260200190815260200160002060050180549050848054600181600116156101000203166002900480601f0160208091040260200160405190810160405280929190818152602001828054600181600116156101000203166002900480156123e55780601f106123ba576101008083540402835291602001916123e5565b820191906000526020600020905b8154815290600101906020018083116123c857829003601f168201915b50505050509450838054600181600116156101000203166002900480601f0160208091040260200160405190810160405280929190818152602001828054600181600116156101000203166002900480156124815780601f1061245657610100808354040283529160200191612481565b820191906000526020600020905b81548152906001019060200180831161246457829003601f168201915b505050505093509650965096509650965096509650919395979092949650565b6000600780549050905090565b6000806000806124bc61530e565b600460003373ffffffffffffffffffffffffffffffffffffffff1673ffffffffffffffffffffffffffffffffffffffff16815260200190815260200160002060000160159054906101000a900460ff16151561251757600080fd5b600460003373ffffffffffffffffffffffffffffffffffffffff1673ffffffffffffffffffffffffffffffffffffffff16815260200190815260200160002060000160149054906101000a900460ff16151561257257600080fd5b428911151561258057600080fd5b600a8b511115151561259157600080fd5b89518b511415156125a157600080fd5b60009350600092505b8a5183101561264f5760008b848151811015156125c357fe5b9060200190602002015173ffffffffffffffffffffffffffffffffffffffff16141515156125f057600080fd5b60008a8481518110151561260057fe5b9060200190602002015111151561261657600080fd5b6126408a8481518110151561262757fe5b9060200190602002015185614dbf90919063ffffffff16565b935082806001019350506125aa565b6126588b614ddd565b91506001600783908060018154018082558091505090600182039060005260206000200160009091929091909150906000191690550360066000846000191660001916815260200190815260200160002060020181905550600060066000846000191660001916815260200190815260200160002060000160006101000a81548160ff021916908315150217905550600160066000846000191660001916815260200190815260200160002060000160016101000a81548160ff021916908315150217905550600060066000846000191660001916815260200190815260200160002060000160026101000a81548160ff0219169083151502179055503360066000846000191660001916815260200190815260200160002060040160006101000a81548173ffffffffffffffffffffffffffffffffffffffff021916908373ffffffffffffffffffffffffffffffffffffffff1602179055508a60066000846000191660001916815260200190815260200160002060050190805190602001906127e4929190615348565b508960066000846000191660001916815260200190815260200160002060060190805190602001906128179291906153d2565b508360066000846000191660001916815260200190815260200160002060070181905550886006600084600019166000191681526020019081526020016000206013018190555087600660008460001916600019168152602001908152602001600020600801908051906020019061289092919061528e565b508660066000846000191660001916815260200190815260200160002060090190805190602001906128c392919061528e565b506001600660008460001916600019168152602001908152602001600020600e01819055506001600660008460001916600019168152602001908152602001600020600f018190555042600660008460001916600019168152602001908152602001600020601001819055504260066000846000191660001916815260200190815260200160002060120181905550600060066000846000191660001916815260200190815260200160002060110160006101000a81548160ff0219169083151502179055506001600660008460001916600019168152602001908152602001600020600c0160003373ffffffffffffffffffffffffffffffffffffffff1673ffffffffffffffffffffffffffffffffffffffff16815260200190815260200160002060006101000a81548160ff021916908315150217905550600660008360001916600019168152602001908152602001600020600b013390806001815401808255809150509060018203906000526020600020016000909192909190916101000a81548173ffffffffffffffffffffffffffffffffffffffff021916908373ffffffffffffffffffffffffffffffffffffffff16021790555050600460003373ffffffffffffffffffffffffffffffffffffffff1673ffffffffffffffffffffffffffffffffffffffff168152602001908152602001600020600401829080600181540180825580915050906001820390600052602060002001600090919290919091509060001916905550600181600001901515908115158152505033816020019073ffffffffffffffffffffffffffffffffffffffff16908173ffffffffffffffffffffffffffffffffffffffff168152505085816040018190525080600660008460001916600019168152602001908152602001600020600d0160003373ffffffffffffffffffffffffffffffffffffffff1673ffffffffffffffffffffffffffffffffffffffff16815260200190815260200160002060008201518160000160006101000a81548160ff02191690831515021790555060208201518160000160016101000a81548173ffffffffffffffffffffffffffffffffffffffff021916908373ffffffffffffffffffffffffffffffffffffffff1602179055506040820151816001019080519060200190612c2292919061541f565b5090505081600019163373ffffffffffffffffffffffffffffffffffffffff167f92c8e3b746454bb0ce9a428fe0304596e6472d2a81777daaa8a88e1d02d07e518a8a604051808060200180602001838103835285818151815260200191508051906020019080838360005b83811015612ca9578082015181840152602081019050612c8e565b50505050905090810190601f168015612cd65780820380516001836020036101000a031916815260200191505b50838103825284818151815260200191508051906020019080838360005b83811015612d0f578082015181840152602081019050612cf4565b50505050905090810190601f168015612d3c5780820380516001836020036101000a031916815260200191505b5094505050505060405180910390a3612d5482614e7c565b9450505050509695505050505050565b6000600980549050905090565b60008060006006600085600019166000191681526020019081526020016000206001015460066000866000191660001916815260200190815260200160002060020154600660008760001916600019168152602001908152602001600020600301549250925092509193909250565b6000600880549050905090565b6000600580549050905090565b600080600080600080606060066000896000191660001916815260200190815260200160002060000160009054906101000a900460ff16600660008a6000191660001916815260200190815260200160002060000160019054906101000a900460ff16600660008b6000191660001916815260200190815260200160002060000160029054906101000a900460ff16600660008c6000191660001916815260200190815260200160002060040160009054906101000a900473ffffffffffffffffffffffffffffffffffffffff16600660008d6000191660001916815260200190815260200160002060130154600660008e6000191660001916815260200190815260200160002060070154600660008f60001916600019168152602001908152602001600020600801808054600181600116156101000203166002900480601f016020809104026020016040519081016040528092919081815260200182805460018160011615610100020316600290048015612fb95780601f10612f8e57610100808354040283529160200191612fb9565b820191906000526020600020905b815481529060010190602001808311612f9c57829003601f168201915b505050505090509650965096509650965096509650919395979092949650565b600581815481101515612fe857fe5b906000526020600020016000915054906101000a900473ffffffffffffffffffffffffffffffffffffffff1681565b6000809054906101000a900473ffffffffffffffffffffffffffffffffffffffff1673ffffffffffffffffffffffffffffffffffffffff163373ffffffffffffffffffffffffffffffffffffffff1614151561307257600080fd5b60008373ffffffffffffffffffffffffffffffffffffffff161415151561309857600080fd5b600460008473ffffffffffffffffffffffffffffffffffffffff1673ffffffffffffffffffffffffffffffffffffffff16815260200190815260200160002060000160159054906101000a900460ff161515156130f457600080fd5b600160058490806001815401808255809150509060018203906000526020600020016000909192909190916101000a81548173ffffffffffffffffffffffffffffffffffffffff021916908373ffffffffffffffffffffffffffffffffffffffff16021790555003600460008573ffffffffffffffffffffffffffffffffffffffff1673ffffffffffffffffffffffffffffffffffffffff168152602001908152602001600020600601819055506001600460008573ffffffffffffffffffffffffffffffffffffffff1673ffffffffffffffffffffffffffffffffffffffff16815260200190815260200160002060000160146101000a81548160ff0219169083151502179055506001600460008573ffffffffffffffffffffffffffffffffffffffff1673ffffffffffffffffffffffffffffffffffffffff16815260200190815260200160002060000160156101000a81548160ff02191690831515021790555082600460008573ffffffffffffffffffffffffffffffffffffffff1673ffffffffffffffffffffffffffffffffffffffff16815260200190815260200160002060000160006101000a81548173ffffffffffffffffffffffffffffffffffffffff021916908373ffffffffffffffffffffffffffffffffffffffff16021790555081600460008573ffffffffffffffffffffffffffffffffffffffff1673ffffffffffffffffffffffffffffffffffffffff168152602001908152602001600020600101908051906020019061332f92919061528e565b5080600460008573ffffffffffffffffffffffffffffffffffffffff1673ffffffffffffffffffffffffffffffffffffffff168152602001908152602001600020600201908051906020019061338692919061528e565b5042600460008573ffffffffffffffffffffffffffffffffffffffff1673ffffffffffffffffffffffffffffffffffffffff16815260200190815260200160002060030181905550600115158373ffffffffffffffffffffffffffffffffffffffff167f27b022af4a8347100c7a041ce5ccf8e14d644ff05de696315196faae8cd50c9b60405160405180910390a3505050565b60078181548110151561342957fe5b906000526020600020016000915090505481565b6000809054906101000a900473ffffffffffffffffffffffffffffffffffffffff1673ffffffffffffffffffffffffffffffffffffffff163373ffffffffffffffffffffffffffffffffffffffff1614151561349857600080fd5b600460008273ffffffffffffffffffffffffffffffffffffffff1673ffffffffffffffffffffffffffffffffffffffff16815260200190815260200160002060000160159054906101000a900460ff1615156134f357600080fd5b6001600460008373ffffffffffffffffffffffffffffffffffffffff1673ffffffffffffffffffffffffffffffffffffffff16815260200190815260200160002060000160146101000a81548160ff021916908315150217905550600115158173ffffffffffffffffffffffffffffffffffffffff167f27b022af4a8347100c7a041ce5ccf8e14d644ff05de696315196faae8cd50c9b60405160405180910390a350565b60015481565b6000809054906101000a900473ffffffffffffffffffffffffffffffffffffffff1681565b60006135cd61530e565b600080600460003373ffffffffffffffffffffffffffffffffffffffff1673ffffffffffffffffffffffffffffffffffffffff16815260200190815260200160002060000160159054906101000a900460ff16151561362b57600080fd5b600460003373ffffffffffffffffffffffffffffffffffffffff1673ffffffffffffffffffffffffffffffffffffffff16815260200190815260200160002060000160149054906101000a900460ff16151561368657600080fd5b60066000886000191660001916815260200190815260200160002060000160009054906101000a900460ff1615156136bd57600080fd5b60066000886000191660001916815260200190815260200160002060000160019054906101000a900460ff161515156136f557600080fd5b60066000886000191660001916815260200190815260200160002060000160029054906101000a900460ff1615151561372d57600080fd5b600660008860001916600019168152602001908152602001600020600c0160003373ffffffffffffffffffffffffffffffffffffffff1673ffffffffffffffffffffffffffffffffffffffff16815260200190815260200160002060009054906101000a900460ff161515156137a257600080fd5b60066000886000191660001916815260200190815260200160002060110160009054906101000a900460ff161515156137da57600080fd5b6001600660008960001916600019168152602001908152602001600020600c0160003373ffffffffffffffffffffffffffffffffffffffff1673ffffffffffffffffffffffffffffffffffffffff16815260200190815260200160002060006101000a81548160ff021916908315150217905550600660008860001916600019168152602001908152602001600020600b013390806001815401808255809150509060018203906000526020600020016000909192909190916101000a81548173ffffffffffffffffffffffffffffffffffffffff021916908373ffffffffffffffffffffffffffffffffffffffff160217905550508583600001901515908115158152505033836020019073ffffffffffffffffffffffffffffffffffffffff16908173ffffffffffffffffffffffffffffffffffffffff168152505084836040018190525082600660008960001916600019168152602001908152602001600020600d0160003373ffffffffffffffffffffffffffffffffffffffff1673ffffffffffffffffffffffffffffffffffffffff16815260200190815260200160002060008201518160000160006101000a81548160ff02191690831515021790555060208201518160000160016101000a81548173ffffffffffffffffffffffffffffffffffffffff021916908373ffffffffffffffffffffffffffffffffffffffff1602179055506040820151816001019080519060200190613a0092919061541f565b50905050600660008860001916600019168152602001908152602001600020600e01600081548092919060010191905055508515613a6757600660008860001916600019168152602001908152602001600020600f01600081548092919060010191905055505b600460003373ffffffffffffffffffffffffffffffffffffffff1673ffffffffffffffffffffffffffffffffffffffff16815260200190815260200160002060040187908060018154018082558091505090600182039060005260206000200160009091929091909150906000191690555085151587600019163373ffffffffffffffffffffffffffffffffffffffff167f835cae36a79e347fa3db93239a7dd3462bd42a6a49d9d3c2dca944a19666aae0886040518080602001828103825283818151815260200191508051906020019080838360005b83811015613b5a578082015181840152602081019050613b3f565b50505050905090810190601f168015613b875780820380516001836020036101000a031916815260200191505b509250505060405180910390a4600154600660008960001916600019168152602001908152602001600020600e0154101515613ffe57600354600660008960001916600019168152602001908152602001600020600f0154101515613fc5576006600088600019166000191681526020019081526020016000206001015491506008600160088054905003815481101515613c1e57fe5b9060005260206000200154905080600883815481101515613c3b57fe5b90600052602060002001816000191690555081600660008360001916600019168152602001908152602001600020600101819055506008805480919060019003613c859190615262565b506000600660008960001916600019168152602001908152602001600020600101819055506001600788908060018154018082558091505090600182039060005260206000200160009091929091909150906000191690550360066000896000191660001916815260200190815260200160002060020181905550600060066000896000191660001916815260200190815260200160002060000160006101000a81548160ff021916908315150217905550600160066000896000191660001916815260200190815260200160002060000160016101000a81548160ff021916908315150217905550600060066000896000191660001916815260200190815260200160002060000160026101000a81548160ff021916908315150217905550426006600089600019166000191681526020019081526020016000206012018190555060066000886000191660001916815260200190815260200160002060040160009054906101000a900473ffffffffffffffffffffffffffffffffffffffff1673ffffffffffffffffffffffffffffffffffffffff1687600019163373ffffffffffffffffffffffffffffffffffffffff167f5d8123088e110f1ac90e249e8c4d4ad9b9873e712bede3439a550c55d5e6d994600660008c60001916600019168152602001908152602001600020600801600660008d60001916600019168152602001908152602001600020600901604051808060200180602001838103835285818154600181600116156101000203166002900481526020019150805460018160011615610100020316600290048015613f235780601f10613ef857610100808354040283529160200191613f23565b820191906000526020600020905b815481529060010190602001808311613f0657829003601f168201915b5050838103825284818154600181600116156101000203166002900481526020019150805460018160011615610100020316600290048015613fa65780601f10613f7b57610100808354040283529160200191613fa6565b820191906000526020600020905b815481529060010190602001808311613f8957829003601f168201915b505094505050505060405180910390a4613fbf87614e7c565b50613ffd565b600160066000896000191660001916815260200190815260200160002060110160006101000a81548160ff0219169083151502179055505b5b600193505050509392505050565b60035481565b600080600080428711151561402657600080fd5b600a89511115151561403757600080fd5b8751895114151561404757600080fd5b60009250600091505b88518210156140f5576000898381518110151561406957fe5b9060200190602002015173ffffffffffffffffffffffffffffffffffffffff161415151561409657600080fd5b600088838151811015156140a657fe5b906020019060200201511115156140bc57600080fd5b6140e688838151811015156140cd57fe5b9060200190602002015184614dbf90919063ffffffff16565b92508180600101925050614050565b6140fe89614ddd565b90506001600882908060018154018082558091505090600182039060005260206000200160009091929091909150906000191690550360066000836000191660001916815260200190815260200160002060010181905550600160066000836000191660001916815260200190815260200160002060000160006101000a81548160ff021916908315150217905550600060066000836000191660001916815260200190815260200160002060000160016101000a81548160ff021916908315150217905550600060066000836000191660001916815260200190815260200160002060000160026101000a81548160ff0219169083151502179055503360066000836000191660001916815260200190815260200160002060040160006101000a81548173ffffffffffffffffffffffffffffffffffffffff021916908373ffffffffffffffffffffffffffffffffffffffff16021790555088600660008360001916600019168152602001908152602001600020600501908051906020019061428a929190615348565b508760066000836000191660001916815260200190815260200160002060060190805190602001906142bd9291906153d2565b508260066000836000191660001916815260200190815260200160002060070181905550866006600083600019166000191681526020019081526020016000206013018190555085600660008360001916600019168152602001908152602001600020600801908051906020019061433692919061528e565b5084600660008360001916600019168152602001908152602001600020600901908051906020019061436992919061528e565b506000600660008360001916600019168152602001908152602001600020600e01819055506000600660008360001916600019168152602001908152602001600020600f01819055504260066000836000191660001916815260200190815260200160002060100181905550600060066000836000191660001916815260200190815260200160002060110160006101000a81548160ff02191690831515021790555080600019163373ffffffffffffffffffffffffffffffffffffffff167f88d6fdd6db8ab527d4757772ba1ff58140d31cf168870646da98fa0e09c708f18888604051808060200180602001838103835285818151815260200191508051906020019080838360005b8381101561448f578082015181840152602081019050614474565b50505050905090810190601f1680156144bc5780820380516001836020036101000a031916815260200191505b50838103825284818151815260200191508051906020019080838360005b838110156144f55780820151818401526020810190506144da565b50505050905090810190601f1680156145225780820380516001836020036101000a031916815260200191505b5094505050505060405180910390a350505095945050505050565b600260009054906101000a900473ffffffffffffffffffffffffffffffffffffffff1681565b6000606060008060008060066000886000191660001916815260200190815260200160002060000160009054906101000a900460ff16600660008960001916600019168152602001908152602001600020600901600660008a60001916600019168152602001908152602001600020600b0180549050600660008b60001916600019168152602001908152602001600020600f0154600660008c6000191660001916815260200190815260200160002060100154600660008d6000191660001916815260200190815260200160002060110160009054906101000a900460ff16848054600181600116156101000203166002900480601f0160208091040260200160405190810160405280929190818152602001828054600181600116156101000203166002900480156146d85780601f106146ad576101008083540402835291602001916146d8565b820191906000526020600020905b8154815290600101906020018083116146bb57829003601f168201915b5050505050945095509550955095509550955091939550919395565b6000600660008460001916600019168152602001908152602001600020600b018281548110151561472157fe5b9060005260206000200160009054906101000a900473ffffffffffffffffffffffffffffffffffffffff16905092915050565b6000809054906101000a900473ffffffffffffffffffffffffffffffffffffffff1673ffffffffffffffffffffffffffffffffffffffff163373ffffffffffffffffffffffffffffffffffffffff161415156147af57600080fd5b600460008273ffffffffffffffffffffffffffffffffffffffff1673ffffffffffffffffffffffffffffffffffffffff16815260200190815260200160002060000160159054906101000a900460ff16151561480a57600080fd5b6000600460008373ffffffffffffffffffffffffffffffffffffffff1673ffffffffffffffffffffffffffffffffffffffff16815260200190815260200160002060000160146101000a81548160ff021916908315150217905550600015158173ffffffffffffffffffffffffffffffffffffffff167f27b022af4a8347100c7a041ce5ccf8e14d644ff05de696315196faae8cd50c9b60405160405180910390a350565b6000809054906101000a900473ffffffffffffffffffffffffffffffffffffffff1673ffffffffffffffffffffffffffffffffffffffff163373ffffffffffffffffffffffffffffffffffffffff1614151561490a57600080fd5b60008173ffffffffffffffffffffffffffffffffffffffff161415151561493057600080fd5b80600260006101000a81548173ffffffffffffffffffffffffffffffffffffffff021916908373ffffffffffffffffffffffffffffffffffffffff160217905550600260009054906101000a900473ffffffffffffffffffffffffffffffffffffffff1673ffffffffffffffffffffffffffffffffffffffff167f7a9433a5c174277e7be4eaac6ad019893100456ae285225bcd980adb0dd9817f60405160405180910390a250565b60006060600080600080600060066000896000191660001916815260200190815260200160002060000160019054906101000a900460ff16600660008a60001916600019168152602001908152602001600020600901600660008b60001916600019168152602001908152602001600020600b0180549050600660008c60001916600019168152602001908152602001600020600f0154600660008d6000191660001916815260200190815260200160002060100154600660008e6000191660001916815260200190815260200160002060120154600660008f60001916600019168152602001908152602001600020600a0160009054906101000a900473ffffffffffffffffffffffffffffffffffffffff16858054600181600116156101000203166002900480601f016020809104026020016040519081016040528092919081815260200182805460018160011615610100020316600290048015614b825780601f10614b5757610100808354040283529160200191614b82565b820191906000526020600020905b815481529060010190602001808311614b6557829003601f168201915b505050505095509650965096509650965096509650919395979092949650565b6000600460008473ffffffffffffffffffffffffffffffffffffffff1673ffffffffffffffffffffffffffffffffffffffff16815260200190815260200160002060050182815481101515614bf357fe5b9060005260206000200154905092915050565b6000600460008473ffffffffffffffffffffffffffffffffffffffff1673ffffffffffffffffffffffffffffffffffffffff16815260200190815260200160002060040182815481101515614c5757fe5b9060005260206000200154905092915050565b6000809054906101000a900473ffffffffffffffffffffffffffffffffffffffff1673ffffffffffffffffffffffffffffffffffffffff163373ffffffffffffffffffffffffffffffffffffffff16141515614cc557600080fd5b600073ffffffffffffffffffffffffffffffffffffffff168173ffffffffffffffffffffffffffffffffffffffff1614151515614d0157600080fd5b8073ffffffffffffffffffffffffffffffffffffffff166000809054906101000a900473ffffffffffffffffffffffffffffffffffffffff1673ffffffffffffffffffffffffffffffffffffffff167f8be0079c531659141344cd1fd0a4f28419497f9722a3daafe3b4186f6b6457e060405160405180910390a3806000806101000a81548173ffffffffffffffffffffffffffffffffffffffff021916908373ffffffffffffffffffffffffffffffffffffffff16021790555050565b6000808284019050838110151515614dd357fe5b8091505092915050565b60008141434260405180858051906020019060200280838360005b83811015614e13578082015181840152602081019050614df8565b505050509050018473ffffffffffffffffffffffffffffffffffffffff1673ffffffffffffffffffffffffffffffffffffffff166c0100000000000000000000000002815260140183815260200182815260200194505050505060405180910390209050919050565b60008060066000846000191660001916815260200190815260200160002060000160009054906101000a900460ff16151515614eb757600080fd5b60066000846000191660001916815260200190815260200160002060000160019054906101000a900460ff161515614eee57600080fd5b60066000846000191660001916815260200190815260200160002060000160029054906101000a900460ff16151515614f2657600080fd5b6000600660008560001916600019168152602001908152602001600020600a0160009054906101000a900473ffffffffffffffffffffffffffffffffffffffff1673ffffffffffffffffffffffffffffffffffffffff16141515614f8957600080fd5b600260009054906101000a900473ffffffffffffffffffffffffffffffffffffffff1673ffffffffffffffffffffffffffffffffffffffff1663f7cff133600660008660001916600019168152602001908152602001600020600501600660008760001916600019168152602001908152602001600020600601600660008860001916600019168152602001908152602001600020601301546040518463ffffffff167c010000000000000000000000000000000000000000000000000000000002815260040180806020018060200184815260200183810383528681815481526020019150805480156150d257602002820191906000526020600020905b8160009054906101000a900473ffffffffffffffffffffffffffffffffffffffff1673ffffffffffffffffffffffffffffffffffffffff1681526020019060010190808311615088575b5050838103825285818154815260200191508054801561511157602002820191906000526020600020905b8154815260200190600101908083116150fd575b505095505050505050602060405180830381600087803b15801561513457600080fd5b505af1158015615148573d6000803e3d6000fd5b505050506040513d602081101561515e57600080fd5b8101908080519060200190929190505050905080600660008560001916600019168152602001908152602001600020600a0160006101000a81548173ffffffffffffffffffffffffffffffffffffffff021916908373ffffffffffffffffffffffffffffffffffffffff1602179055508073ffffffffffffffffffffffffffffffffffffffff1683600019163373ffffffffffffffffffffffffffffffffffffffff167fab290d8198798b8a928c792000a0bb260c4f79701650f667cbce42b933daeba060405160405180910390a480915050919050565b81548183558181111561525d5781836000526020600020918201910161525c919061549f565b5b505050565b8154818355818111156152895781836000526020600020918201910161528891906154c4565b5b505050565b828054600181600116156101000203166002900490600052602060002090601f016020900481019282601f106152cf57805160ff19168380011785556152fd565b828001600101855582156152fd579182015b828111156152fc5782518255916020019190600101906152e1565b5b50905061530a919061549f565b5090565b606060405190810160405280600015158152602001600073ffffffffffffffffffffffffffffffffffffffff168152602001606081525090565b8280548282559060005260206000209081019282156153c1579160200282015b828111156153c05782518260006101000a81548173ffffffffffffffffffffffffffffffffffffffff021916908373ffffffffffffffffffffffffffffffffffffffff16021790555091602001919060010190615368565b5b5090506153ce91906154e9565b5090565b82805482825590600052602060002090810192821561540e579160200282015b8281111561540d5782518255916020019190600101906153f2565b5b50905061541b919061549f565b5090565b828054600181600116156101000203166002900490600052602060002090601f016020900481019282601f1061546057805160ff191683800117855561548e565b8280016001018555821561548e579182015b8281111561548d578251825591602001919060010190615472565b5b50905061549b919061549f565b5090565b6154c191905b808211156154bd5760008160009055506001016154a5565b5090565b90565b6154e691905b808211156154e25760008160009055506001016154ca565b5090565b90565b61552991905b8082111561552557600081816101000a81549073ffffffffffffffffffffffffffffffffffffffff0219169055506001016154ef565b5090565b905600a165627a7a72305820932ac9e735008283afe7ea0dcaf622819c624daea9a60b5d9faac696467370270029",
  "source": "pragma solidity ^0.4.23;\n\n// File: contracts/common/Ownable.sol\n\n/**\n * @title Ownable\n * @dev The Ownable contract has an owner address, and provides basic authorization control\n * functions, this simplifies the implementation of \"user permissions\".\n */\ncontract Ownable {\n    address public owner;\n\n\n    event OwnershipTransferred(address indexed previousOwner, address indexed newOwner);\n\n\n    /**\n     * @dev The Ownable constructor sets the original `owner` of the contract to the sender\n     * account.\n     */\n    function Ownable() {\n        owner = msg.sender;\n    }\n\n\n    /**\n     * @dev Throws if called by any account other than the owner.\n     */\n    modifier onlyOwner() {\n        require(msg.sender == owner);\n        _;\n    }\n\n\n    /**\n     * @dev Allows the current owner to transfer control of the contract to a newOwner.\n     * @param newOwner The address to transfer ownership to.\n     */\n    function transferOwnership(address newOwner) onlyOwner public {\n        require(newOwner != address(0));\n        OwnershipTransferred(owner, newOwner);\n        owner = newOwner;\n    }\n\n}\n\n// File: contracts/common/SafeMath.sol\n\n/**\n * @title SafeMath\n * @dev Math operations with safety checks that throw on error\n */\nlibrary SafeMath {\n  function mul(uint256 a, uint256 b) internal constant returns (uint256) {\n    uint256 c = a * b;\n    assert(a == 0 || c / a == b);\n    return c;\n  }\n\n  function div(uint256 a, uint256 b) internal constant returns (uint256) {\n    // assert(b > 0); // Solidity automatically throws when dividing by 0\n    uint256 c = a / b;\n    // assert(a == b * c + a % b); // There is no case in which this doesn't hold\n    return c;\n  }\n\n  function sub(uint256 a, uint256 b) internal constant returns (uint256) {\n    assert(b <= a);\n    return a - b;\n  }\n\n  function add(uint256 a, uint256 b) internal constant returns (uint256) {\n    uint256 c = a + b;\n    assert(c >= a);\n    return c;\n  }\n}\n\n// File: contracts/common/RefundCharity.sol\n\n/**\n * @title RefundVault\n * @dev This contract is used for storing funds while a donations\n * is in progress. Supports refunding the money if donations fails,\n * and forwarding it if donation is successful.\n */\ncontract RefundVault is Ownable {\n  using SafeMath for uint256;\n\n  enum State { Active, Refunding, Closed }\n\n  mapping (address => uint256) public deposited;\n  address[] public wallets;\n  uint256[] public amounts;\n  State public state;\n\n  event Closed();\n  event RefundsEnabled();\n  event Refunded(address indexed beneficiary, uint256 weiAmount);\n\n  /**\n   * @param _wallets Vault addresses\n   */\n  function RefundVault(address[] _wallets, uint256[] _amounts) public {\n    require(_wallets.length == _amounts.length);\n\n    for (uint i = 0; i < _wallets.length; i++) {\n      require(_wallets[i] != address(0));\n      require(_amounts[i] > 0);\n    }\n    wallets = _wallets;\n    amounts = _amounts;\n    state = State.Active;\n  }\n\n  /**\n   * @param investor Investor address\n   */\n  function deposit(address investor) onlyOwner public payable {\n    require(state == State.Active);\n    deposited[investor] = deposited[investor].add(msg.value);\n  }\n\n  function close() onlyOwner public {\n    require(state == State.Active);\n    state = State.Closed;\n    emit Closed();\n    for (uint i = 0; i < wallets.length; i++) {\n      wallets[i].send(amounts[i]);\n    }\n  }\n\n  function enableRefunds() onlyOwner public {\n    require(state == State.Active);\n    state = State.Refunding;\n    emit RefundsEnabled();\n  }\n\n  /**\n   * @param investor Investor address\n   */\n  function refund(address investor) public {\n    require(state == State.Refunding);\n    uint256 depositedValue = deposited[investor];\n    deposited[investor] = 0;\n    investor.transfer(depositedValue);\n    emit Refunded(investor, depositedValue);\n  }\n}\n\n/**\n * @title RefundCharity\n * @dev RefundCharity is a contract for managing a crowd charity campaign\n */\n\ncontract RefundCharity is Ownable {\n  using SafeMath for uint256;\n\n  // Address where funds are collected\n  address[] public wallets;\n\n  // amount of funds to be raised in weis for wallets\n  uint256[] public goals;\n\n  // amount of funds to be raised in weis\n  uint256 public goal;\n\n  // refund vault used to hold funds while donations is running\n  RefundVault public vault;\n\n  // Amount of wei raised\n  uint256 public weiRaised;\n\n  uint256 public openingTime;\n  uint256 public closingTime;\n\n  bool public isFinalized = false;\n\n  event Finalized();\n\n  /**\n   * Event for donate logging\n   * @param purchaser who paid\n   * @param value weis paid for purchase\n   */\n  event Donate(address indexed purchaser, uint256 value);\n\n  /**\n   * @dev Reverts if not in donations time range.\n   */\n  modifier onlyWhileOpen {\n    // solium-disable-next-line security/no-block-members\n    require(block.timestamp >= openingTime && block.timestamp <= closingTime);\n    _;\n  }\n\n  // -----------------------------------------\n  // External interface\n  // -----------------------------------------\n\n  /**\n   * @dev fallback function ***DO NOT OVERRIDE***\n   */\n  function () external payable {\n    donate(msg.sender);\n  }\n\n  /**\n   * @dev low level donations ***DO NOT OVERRIDE***\n   * @param _beneficiary Address who make donation\n   */\n  function donate(address _beneficiary) public payable {\n\n    uint256 weiAmount = msg.value;\n\n    uint256 change = 0;\n    uint256 needed = goal.sub(weiRaised);\n\n    if (weiAmount > needed) {\n      change = weiAmount.sub(needed);\n      weiAmount = needed;\n    }\n\n    if (change > 0) {\n      _beneficiary.transfer(change);\n    }\n\n    _preValidatePurchase(_beneficiary, weiAmount);\n\n    // update state\n    weiRaised = weiRaised.add(weiAmount);\n\n    emit Donate(msg.sender, weiAmount);\n\n    _forwardFunds(weiAmount);\n    _postValidatePurchase(_beneficiary, weiAmount);\n  }\n\n  // -----------------------------------------\n  // Internal interface (extensible)\n  // -----------------------------------------\n\n  /**\n   * @dev Validation of an incoming purchase. Use require statements to revert state when conditions are not met. Use super to concatenate validations.\n   * @param _beneficiary Address performing the donation\n   * @param _weiAmount Value in wei involved in the purchase\n   */\n  function _preValidatePurchase(address _beneficiary, uint256 _weiAmount) internal onlyWhileOpen {\n    require(_beneficiary != address(0));\n    require(_weiAmount != 0);\n    require(weiRaised.add(_weiAmount) <= goal);\n  }\n\n  /**\n   * @dev Validation of an executed purchase. Observe state and use revert statements to undo rollback when valid conditions are not met.\n   * @param _beneficiary Address performing the donation\n   * @param _weiAmount Value in wei involved in the purchase\n   */\n  function _postValidatePurchase(address _beneficiary, uint256 _weiAmount) internal {\n    // optional override\n  }\n\n  /**\n   * @dev Determines how ETH is stored/forwarded - sending funds to vault.\n   */\n  function _forwardFunds(uint256 _weiAmount) internal {\n    vault.deposit.value(_weiAmount)(msg.sender);\n  }\n\n  /**\n   * @dev Checks whether the period in which the donations is open has already elapsed.\n   * @return Whether donations period has elapsed\n   */\n  function hasClosed() public view returns (bool) {\n    // solium-disable-next-line security/no-block-members\n    return block.timestamp > closingTime;\n  }\n\n  /**\n   * @dev Checks whether the goal has been reached.\n   * @return Whether the goal was reached\n   */\n  function goalReached() public view returns (bool) {\n    return weiRaised >= goal;\n  }\n\n  /**\n   * @param _wallets Address where collected funds will be forwarded to\n   * @param _goals Donations goal\n   * @param _closingTime Donation closing time\n   */\n  function RefundCharity(\n    address[] _wallets,\n    uint256[] _goals,\n    uint256 _closingTime\n  )\n  public\n  {\n    require(_wallets.length == _goals.length);\n\n    for (uint i = 0; i < _wallets.length; i++) {\n      require(_wallets[i] != 0x0);\n      require(_goals[i] > 0);\n      goal = goal.add(_goals[i]);\n    }\n\n    require(_closingTime >= block.timestamp);\n\n    wallets = _wallets;\n\n    openingTime = now;\n    closingTime = _closingTime;\n\n    vault = new RefundVault(_wallets, _goals);\n    goals = _goals;\n  }\n\n  /**\n   * @dev Must be called after campaign ends, to do some extra finalization\n   * work. Calls the contract's finalization function.\n   */\n  function finalize() public {\n    require(!isFinalized);\n    require(hasClosed() || goalReached());\n\n    finalization();\n    emit Finalized();\n\n    isFinalized = true;\n  }\n\n  /**\n   * @dev Donators can claim refunds here if donations is unsuccessful\n   */\n  function claimRefund() public {\n    require(isFinalized);\n    require(!goalReached());\n\n    vault.refund(msg.sender);\n  }\n\n  /**\n   * @dev vault finalization task, called when owner calls finalize()\n   */\n  function finalization() internal {\n    if (goalReached()) {\n      vault.close();\n    } else {\n      vault.enableRefunds();\n    }\n  }\n}\n\n// File: contracts/common/RefundCharityFabricInterface.sol\n\n/**\n * @title RefundCharityFabric\n * @dev RefundCharity is a contract for creating a crowd charity campaign\n */\n\ncontract RefundCharityFabricInterface {\n  using SafeMath for uint256;\n\n  function create(\n    address[] _wallets,\n    uint256[] _goals,\n    uint256 _closingTime\n  ) public returns (RefundCharity);\n}\n\n// File: contracts/main.sol\n\n/**\n * @title DACO congress contract\n * @dev http://daco.life\n */\ncontract DACOMain is Ownable {\n    \n    using SafeMath for uint256;\n    \n    /**\n     * @dev Minimal quorum value\n     */\n    uint256 public minimumQuorum;\n\n    /**\n     * @dev Fabric for creating refund campaign\n     */\n    address public refundCharityFabric;\n\n    /**\n     * @dev Majority margin is used in voting procedure\n     */\n    uint256 public majorityMargin;\n\n\n    // ---====== MEMBERS ======---\n    /**\n     * @dev Get delegate object by account address\n     */\n    mapping(address => Member) members;\n\n    /**\n     * @dev Congress members addresses list\n     */\n    address[] public membersAddr;\n\n    /**\n     * @dev Count of members in archive\n     */\n    function numMembers() public view returns (uint256)\n    { return membersAddr.length; }\n\n\n    // ---====== CAMPAIGNS ======---\n    /**\n     * @dev Get campaign object by campaign hash\n     */\n    mapping(bytes32 => Campaign) campaigns;\n\n    /**\n     * @dev Campaigns hashes list\n     */\n    bytes32[] public campaignsHash;\n\n    /**\n     * @dev Count of campaigns in list\n     */\n    function numCampaigns() public view returns (uint256)\n    { return campaignsHash.length; }\n\n\n\n    // ---====== PROPOSALS ======---\n    /**\n     * @dev List of all proposals hashes\n     */\n    bytes32[] public proposalsHash;\n\n    /**\n     * @dev Count of proposals in list\n     */\n    function numProposals() public view returns (uint256)\n    { return proposalsHash.length; }\n\n\n\n    // ---====== FINISHED CAMPAIGNS ======---\n    /**\n     * @dev Campaigns list\n     */\n    bytes32[] public finishedCampaignsHash;\n\n    /**\n     * @dev Count of campaigns in list\n     */\n    function numFinishedCampaigns() public view returns (uint256)\n    { return finishedCampaignsHash.length; }\n\n\n\n    /**\n     * @dev On proposal added\n     * @param sender Sender address\n     * @param hash Campaign hash\n     * @param description Description\n     * @param link Link to site\n     */\n    event ProposalAdded(\n        address indexed sender,\n        bytes32 indexed hash,\n        string description,\n        string link\n    );\n\n    /**\n     * @dev On campaign added\n     * @param sender Sender address\n     * @param hash Campaign hash\n     * @param description Description\n     * @param link Link to site\n     */\n    event CampaignAdded(\n        address indexed sender,\n        bytes32 indexed hash,\n        string description,\n        string link\n    );\n\n    /**\n     * @dev On proposal passed\n     * @param sender Sender address\n     * @param hash Campaign hash\n     * @param owner Owner address\n     * @param description Description\n     * @param link Link to site\n     */\n    event ProposalPassed(\n        address indexed sender,\n        bytes32 indexed hash,\n        address indexed owner,\n        string description,\n        string link\n    );\n\n    /**\n     * @dev On vote by member accepted\n     * @param sender Proposal sender\n     * @param hash Campaign hash\n     * @param supportsProposal Support proposal\n     * @param comment Comment\n     */\n    event Voted(\n        address indexed sender,\n        bytes32 indexed hash,\n        bool indexed supportsProposal,\n        string comment\n    );\n\n    /**\n     * @dev On finish campaign\n     * @param sender Proposal sender\n     * @param hash Campaign hash\n     * @param raisedAmount Raised amount\n     * @param report Report\n     */\n    event FinishCampaign(\n        address indexed sender,\n        bytes32 indexed hash,\n        uint256 indexed raisedAmount,\n        string report\n    );\n\n    /**\n     * @dev create new donations contract\n     * @param sender Sender\n     * @param hash Campaign hash\n     * @param donation address for donations\n     */\n    event CreateDonationContract(\n        address indexed sender,\n        bytes32 indexed hash,\n        address indexed donation\n    );\n\n    /**\n     * @dev On changed membership\n     * @param member Account address\n     * @param isMember Is account member now\n     */\n    event MembershipChanged(\n        address indexed member,\n        bool    indexed isMember\n    );\n\n    /**\n     * @dev On changed membership\n     * @param charityFabric Address fabric\n     */\n    event CharityFabricChanged(\n        address indexed charityFabric\n    );\n\n    /**\n     * @dev On voting rules changed\n     * @param minimumQuorum New minimal count of votes\n     * @param majorityMargin New majority margin value\n     */\n    event ChangeOfRules(\n        uint256 indexed minimumQuorum,\n        uint256 indexed majorityMargin\n    );\n\n    struct Campaign {\n        bool isProposal;\n        bool isCampaign;\n        bool isFinishedCampaign;\n\n        uint indexProposal;\n        uint indexCampaign;\n        uint indexFinishedCampaign;\n\n        address owner;\n        address[] wallets;\n        uint256[] amounts;\n        uint256 amount;\n        string  description;\n        string  link;\n\n        address donationContract;\n\n        address[] votesAddr;\n        mapping(address => bool) voted;\n        mapping(address => Vote) voteData;\n\n        uint256 numberOfVotes;\n        uint256 currentResult;\n\n        uint256 proposalDate;\n        bool proposalRejected;\n\n        uint256 campaignDate;\n        uint256 endDate;\n\n        uint256 finishDate;\n        uint256 raisedAmount;\n        string  report;\n    }\n\n    struct Vote {\n        bool supportsProposal;\n        address sender;\n        string comment;\n    }\n\n    struct Member {\n        address member;\n        bool active;\n        bool isMember;\n        string  name;\n        string  link;\n        uint256 memberSince;\n        bytes32[] campaignsHash;\n        bytes32[] finishedCampaignsHash;\n        uint index;\n    }\n\n    /**\n     * @dev Modifier that allows only shareholders to vote and create new proposals\n     */\n    modifier onlyMembers {\n        require (members[msg.sender].isMember);\n        require (members[msg.sender].active);\n        _;\n    }\n\n    /**\n     * @dev First time setup\n     */\n    function DACOMain(address _refundCharityFabric) public {\n        setCharityFabric(_refundCharityFabric);\n        changeVotingRules(1, 1);\n    }\n\n    /**\n     * @dev Get member\n     * @param _address Member account address\n     */\n    function getMember(address _address) public view returns (\n        bool active,\n        bool isMember,\n        string name,\n        string link,\n        uint256 memberSince,\n        uint256 countCampaigns,\n        uint256 countFinishedCampaigns\n    ) {\n        return (\n            members[_address].active,\n            members[_address].isMember,\n            members[_address].name,\n            members[_address].link,\n            members[_address].memberSince,\n            members[_address].campaignsHash.length,\n            members[_address].finishedCampaignsHash.length\n        );\n    }\n\n    /**\n     * @dev Get campaign common information\n     * @param _hash Campaign hash key\n     */\n    function getCampaignCommonInfo(bytes32 _hash) public view returns (\n        bool isProposal,\n        bool isCampaign,\n        bool isFinishedCampaign,\n        address owner,\n        uint256 endDate,\n        uint256 amount,\n        string description\n    ) {\n        return (\n            campaigns[_hash].isProposal,\n            campaigns[_hash].isCampaign,\n            campaigns[_hash].isFinishedCampaign,\n            campaigns[_hash].owner,\n            campaigns[_hash].endDate,\n            campaigns[_hash].amount,\n            campaigns[_hash].description\n        );\n    }\n\n    /**\n     * @dev Get info for proposals\n     * @param _hash Campaign hash\n     */\n    function getCampaignProposalInfo(bytes32 _hash) public view returns (\n        bool isProposal,\n        string link,\n        uint256 countVotes,\n        uint256 currentResult,\n        uint256 proposalDate,\n        bool proposalRejected\n    ) {\n        return (\n            campaigns[_hash].isProposal,\n            campaigns[_hash].link,\n            campaigns[_hash].votesAddr.length,\n            campaigns[_hash].currentResult,\n            campaigns[_hash].proposalDate,\n            campaigns[_hash].proposalRejected\n        );\n    }\n\n    /**\n     * @dev Get info for active campaigns\n     * @param _hash Campaign hash\n     */\n    function getCampaignActiveInfo(bytes32 _hash) public view returns (\n        bool isCampaign,\n        string link,\n        uint256 countVotes,\n        uint256 currentResult,\n        uint256 proposalDate,\n        uint256 campaignDate,\n        address donationContract\n    ) {\n        return (\n            campaigns[_hash].isCampaign,\n            campaigns[_hash].link,\n            campaigns[_hash].votesAddr.length,\n            campaigns[_hash].currentResult,\n            campaigns[_hash].proposalDate,\n            campaigns[_hash].campaignDate,\n            campaigns[_hash].donationContract\n        );\n    }\n\n    /**\n     * @dev Get info for finished campaigns\n     * @param _hash Campaign hash\n     */\n    function getCampaignFinishedInfo(bytes32 _hash) public view returns (\n        string link,\n        uint256 countVotes,\n        uint256 campaignDate,\n        uint256 finishDate,\n        uint256 raisedAmount,\n        string report,\n        address donationContract\n    ) {\n        return (\n            campaigns[_hash].link,\n            campaigns[_hash].votesAddr.length,\n            campaigns[_hash].campaignDate,\n            campaigns[_hash].finishDate,\n            campaigns[_hash].raisedAmount,\n            campaigns[_hash].report,\n            campaigns[_hash].donationContract\n        );\n    }\n\n    /**\n     * @dev Get info for campaigns indexes\n     * @param _hash Campaign hash\n     */\n    function getCampaignIndexInfo(bytes32 _hash) public view returns (\n        uint indexProposal,\n        uint indexCampaign,\n        uint indexFinishedCampaign\n    ) {\n        return (\n            campaigns[_hash].indexProposal,\n            campaigns[_hash].indexCampaign,\n            campaigns[_hash].indexFinishedCampaign\n        );\n    }\n\n    /**\n     * @dev Get member who vote for campaign\n     * @param _hash Campaign hash\n     * @param _index Member index\n     */\n    function getCampaignVoteMemberAddress(bytes32 _hash, uint256 _index) public view returns (\n        address\n    ) {\n        return (\n            campaigns[_hash].votesAddr[_index]\n        );\n    }\n\n    /**\n     * @dev Get campaign\n     * @param _hashCampaign Campaign hash\n     * @param _addressMember Member address\n     */\n    function getCampaignVoteObject(bytes32 _hashCampaign, address _addressMember) public view returns (\n        bool supportsProposal,\n        address sender,\n        string comment\n    ) {\n        return (\n            campaigns[_hashCampaign].voteData[_addressMember].supportsProposal,\n            campaigns[_hashCampaign].voteData[_addressMember].sender,\n            campaigns[_hashCampaign].voteData[_addressMember].comment\n        );\n    }\n\n    /**\n     * @dev Get member campaign\n     * @param _addressMember Member address\n     * @param _index Campaign index\n     */\n    function getMemberCampaignAddress(address _addressMember, uint256 _index) public view returns (\n        bytes32\n    ) {\n        return (\n            members[_addressMember].campaignsHash[_index]\n        );\n    }\n\n    /**\n     * @dev Get member campaign\n     * @param _addressMember Member address\n     * @param _index Campaign index\n     */\n    function getMemberFinishedCampaignAddress(address _addressMember, uint256 _index) public view returns (\n        bytes32\n    ) {\n        return (\n            members[_addressMember].finishedCampaignsHash[_index]\n        );\n    }\n\n    /**\n     * @dev Add new congress member\n     * @param _targetMember Member account address\n     * @param _memberName Member full name\n     * @param _memberLink Member site\n     */\n    function addMember(address _targetMember, string _memberName, string _memberLink) public onlyOwner {\n        require(_targetMember != 0x0);\n        require(!members[_targetMember].isMember);\n\n        members[_targetMember].index = membersAddr.push(_targetMember) - 1;\n        members[_targetMember].active = true;\n        members[_targetMember].isMember = true;\n\n        members[_targetMember].member = _targetMember;\n        members[_targetMember].name = _memberName;\n        members[_targetMember].link = _memberLink;\n        members[_targetMember].memberSince = now;\n\n        MembershipChanged(_targetMember, true);\n    }\n\n    /**\n     * @dev set fabric for creating new smart contracts\n     * @param _newCharityFabric address of new fabric\n     */\n    function setCharityFabric(address _newCharityFabric) public onlyOwner {\n        require(_newCharityFabric != 0x0);\n        refundCharityFabric = _newCharityFabric;\n\n        CharityFabricChanged(refundCharityFabric);\n    }\n\n    /**\n     * @dev Remove congress member\n     * @param _targetMember Member account address\n     */\n    function removeMember(address _targetMember) public onlyOwner {\n        require(members[_targetMember].isMember);\n\n        members[_targetMember].active = false;\n        members[_targetMember].isMember = false;\n\n        uint rowToDelete = members[_targetMember].index;\n        address keyToMove   = membersAddr[membersAddr.length-1];\n        membersAddr[rowToDelete] = keyToMove;\n        members[keyToMove].index = rowToDelete;\n        membersAddr.length--;\n\n        MembershipChanged(_targetMember, false);\n    }\n\n    /**\n     * @dev Activate member\n     * @param _targetMember Member account address\n     */\n    function activateMember(address _targetMember) public onlyOwner {\n        require(members[_targetMember].isMember);\n        members[_targetMember].active = true;\n\n        MembershipChanged(_targetMember, true);\n    }\n\n    /**\n     * @dev Activate member\n     * @param _targetMember Member account address\n     */\n    function deactivateMember(address _targetMember) public onlyOwner {\n        require(members[_targetMember].isMember);\n        members[_targetMember].active = false;\n\n        MembershipChanged(_targetMember, false);\n    }\n\n    /**\n     * @dev Change rules of voting\n     * @param _minimumQuorumForProposals Minimal count of votes\n     * @param _marginOfVotesForMajority Majority margin value\n     */\n    function changeVotingRules(\n        uint256 _minimumQuorumForProposals,\n        uint256 _marginOfVotesForMajority\n    )\n    public onlyOwner\n    {\n        minimumQuorum           = _minimumQuorumForProposals;\n        majorityMargin          = _marginOfVotesForMajority;\n\n        ChangeOfRules(minimumQuorum, majorityMargin);\n    }\n\n    /**\n     * @dev Create a new proposal\n     * @param _wallets Beneficiary account addresses\n     * @param _amounts Amount values in wei\n     * @param _endDate End date\n     * @param _description Description string\n     * @param _link Link\n     */\n    function newProposal(\n        address[] _wallets,\n        uint256[] _amounts,\n        uint256 _endDate,\n        string  _description,\n        string  _link\n    )\n    public\n    returns (uint256 id)\n    {\n        require(_endDate > block.timestamp);\n\n        require(_wallets.length <= 10);\n        require(_wallets.length == _amounts.length);\n\n        uint256 amount = 0;\n        for (uint i = 0; i < _wallets.length; i++) {\n            require(_wallets[i] != 0x0);\n            require(_amounts[i] > 0);\n            amount = amount.add(_amounts[i]);\n        }\n\n        bytes32 _hash = generateHash(_wallets);\n\n        campaigns[_hash].indexProposal = proposalsHash.push(_hash) - 1;\n        campaigns[_hash].isProposal = true;\n        campaigns[_hash].isCampaign = false;\n        campaigns[_hash].isFinishedCampaign = false;\n\n        campaigns[_hash].owner = msg.sender;\n        campaigns[_hash].wallets = _wallets;\n        campaigns[_hash].amounts = _amounts;\n        campaigns[_hash].amount = amount;\n        campaigns[_hash].endDate = _endDate;\n        campaigns[_hash].description = _description;\n        campaigns[_hash].link = _link;\n        campaigns[_hash].numberOfVotes = 0;\n        campaigns[_hash].currentResult = 0;\n        campaigns[_hash].proposalDate = now;\n        campaigns[_hash].proposalRejected = false;\n\n        ProposalAdded(msg.sender, _hash, _description, _link);\n    }\n\n    /**\n     * @dev Create a new campaign\n     * @param _wallets Beneficiary account address\n     * @param _amounts Amount value in wei\n     * @param _endDate End date\n     * @param _description Description string\n     * @param _link Link\n     * @param _comment Comment\n     */\n    function newCampaign(\n        address[] _wallets,\n        uint256[] _amounts,\n        uint256 _endDate,\n        string  _description,\n        string  _link,\n        string  _comment\n    )\n    public\n    onlyMembers\n    returns (address)\n    {\n        require(_endDate > block.timestamp);\n\n        require(_wallets.length <= 10);\n        require(_wallets.length == _amounts.length);\n\n        uint256 amount = 0;\n        for (uint i = 0; i < _wallets.length; i++) {\n            require(_wallets[i] != 0x0);\n            require(_amounts[i] > 0);\n            amount = amount.add(_amounts[i]);\n        }\n\n        bytes32 _hash = generateHash(_wallets);\n\n        campaigns[_hash].indexCampaign = campaignsHash.push(_hash) - 1;\n        campaigns[_hash].isProposal = false;\n        campaigns[_hash].isCampaign = true;\n        campaigns[_hash].isFinishedCampaign = false;\n\n        campaigns[_hash].owner = msg.sender;\n        campaigns[_hash].wallets = _wallets;\n        campaigns[_hash].amounts = _amounts;\n        campaigns[_hash].amount = amount;\n        campaigns[_hash].endDate = _endDate;\n        campaigns[_hash].description = _description;\n        campaigns[_hash].link = _link;\n        campaigns[_hash].numberOfVotes = 1;\n        campaigns[_hash].currentResult = 1;\n        campaigns[_hash].proposalDate = now;\n        campaigns[_hash].campaignDate = now;\n        campaigns[_hash].proposalRejected = false;\n        campaigns[_hash].voted[msg.sender] = true;\n        campaigns[_hash].votesAddr.push(msg.sender);\n\n        members[msg.sender].campaignsHash.push(_hash);\n\n        Vote memory v;\n        v.supportsProposal = true;\n        v.sender = msg.sender;\n        v.comment = _comment;\n\n        campaigns[_hash].voteData[msg.sender] = v;\n\n        CampaignAdded(msg.sender, _hash, _description, _link);\n\n        return createDonationsContract(_hash);\n    }\n\n    /**\n     * @dev Proposal voting\n     * @param _hash Campaign hash\n     * @param _supportsProposal Is member support proposal\n     * @param _comment Comment\n     */\n    function vote(\n        bytes32 _hash,\n        bool _supportsProposal,\n        string _comment\n    )\n    public\n    onlyMembers\n    returns (bool)\n    {\n        require(campaigns[_hash].isProposal);\n        require(!campaigns[_hash].isCampaign);\n        require(!campaigns[_hash].isFinishedCampaign);\n\n        require(!campaigns[_hash].voted[msg.sender]);\n        require(!campaigns[_hash].proposalRejected);\n\n        campaigns[_hash].voted[msg.sender] = true; // Set this voter as having voted\n        campaigns[_hash].votesAddr.push(msg.sender);\n\n        Vote memory v;\n        v.supportsProposal = _supportsProposal;\n        v.sender = msg.sender;\n        v.comment = _comment;\n\n        campaigns[_hash].voteData[msg.sender] = v;\n\n        campaigns[_hash].numberOfVotes++; // Increase the number of votes\n        if (_supportsProposal) { // If they support the proposal\n            campaigns[_hash].currentResult++; // Increase score\n        }\n\n        members[msg.sender].campaignsHash.push(_hash);\n\n        // Create a log of this event\n        Voted(msg.sender, _hash,  _supportsProposal, _comment);\n\n        if (campaigns[_hash].numberOfVotes >= minimumQuorum) {\n            if (campaigns[_hash].currentResult >= majorityMargin) {\n                // Proposal passed; remove from proposalsHash and create campaign\n                uint rowToDelete = campaigns[_hash].indexProposal;\n                bytes32 keyToMove   = proposalsHash[proposalsHash.length-1];\n                proposalsHash[rowToDelete] = keyToMove;\n                campaigns[keyToMove].indexProposal = rowToDelete;\n                proposalsHash.length--;\n\n                campaigns[_hash].indexProposal = 0;\n                campaigns[_hash].indexCampaign = campaignsHash.push(_hash) - 1;\n                campaigns[_hash].isProposal = false;\n                campaigns[_hash].isCampaign = true;\n                campaigns[_hash].isFinishedCampaign = false;\n\n                campaigns[_hash].campaignDate = now;\n\n                ProposalPassed(msg.sender, _hash, campaigns[_hash].owner, campaigns[_hash].description, campaigns[_hash].link);\n\n                createDonationsContract(_hash);\n            } else {\n                // Proposal failed\n                campaigns[_hash].proposalRejected = true;\n            }\n        }\n\n        return true;\n    }\n\n    /**\n     * @dev Finish a campaign\n     * @param _hash Campaign hash\n     * @param _raisedAmount Raised amount value in wei\n     * @param _report Report\n     */\n    function finishCampaign(\n        bytes32 _hash,\n        uint256 _raisedAmount,\n        string _report\n    )\n    public\n    onlyMembers\n    returns (bool)\n    {\n        require(!campaigns[_hash].isProposal);\n        require(campaigns[_hash].isCampaign);\n        require(!campaigns[_hash].isFinishedCampaign);\n\n        require(campaigns[_hash].voted[msg.sender]);\n        require(!campaigns[_hash].proposalRejected);\n\n        // Campaign finished; remove from campaignsHash and create finished campaign\n        uint rowToDelete = campaigns[_hash].indexCampaign;\n        bytes32 keyToMove   = campaignsHash[campaignsHash.length-1];\n        campaignsHash[rowToDelete] = keyToMove;\n        campaigns[keyToMove].indexCampaign = rowToDelete;\n        campaignsHash.length--;\n\n        campaigns[_hash].indexProposal = 0;\n        campaigns[_hash].indexCampaign = 0;\n        campaigns[_hash].indexFinishedCampaign = finishedCampaignsHash.push(_hash) - 1;\n        campaigns[_hash].isProposal = false;\n        campaigns[_hash].isCampaign = false;\n        campaigns[_hash].isFinishedCampaign = true;\n\n        campaigns[_hash].finishDate        = now;\n        campaigns[_hash].raisedAmount      = _raisedAmount;\n        campaigns[_hash].report            = _report;\n\n        members[msg.sender].finishedCampaignsHash.push(_hash);\n\n        FinishCampaign(msg.sender, _hash, _raisedAmount, _report);\n        \n        return true;\n    }\n\n    /**\n     * @dev Create contract for donations\n     * @param _hash Campaign hash\n     */\n    function createDonationsContract(\n        bytes32 _hash\n    )\n    internal\n    returns (address)\n    {\n        require(!campaigns[_hash].isProposal);\n        require(campaigns[_hash].isCampaign);\n        require(!campaigns[_hash].isFinishedCampaign);\n        require(campaigns[_hash].donationContract == 0x0);\n\n        address newContract = RefundCharityFabricInterface(refundCharityFabric).create(\n            campaigns[_hash].wallets,\n            campaigns[_hash].amounts,\n            campaigns[_hash].endDate\n        );\n\n        campaigns[_hash].donationContract = newContract;\n\n        CreateDonationContract(msg.sender, _hash, newContract);\n\n        return newContract;\n    }\n\n    function generateHash(\n        address[] _wallets\n    )\n    internal\n    returns (bytes32)\n    {\n        return keccak256(_wallets, block.coinbase, block.number, block.timestamp);\n    }\n}\n",
  "sourcePath": "c:\\work\\Hackaton\\daco_client\\contracts\\daco.sol",
  "compiler": {
    "name": "solc",
    "version": "0.4.23+commit.124ca40d.Emscripten.clang"
  },
  "schemaVersion": "2.0.0",
  "updatedAt": "2018-05-14T19:49:59.387Z"
}