{
  "contractName": "DACOMain",
  "abi": [
    {
      "constant": true,
      "inputs": [
        {
          "name": "",
          "type": "uint256"
        }
      ],
      "name": "proposalsAddr",
      "outputs": [
        {
          "name": "",
          "type": "address"
        }
      ],
      "payable": false,
      "stateMutability": "view",
      "type": "function"
    },
    {
      "constant": true,
      "inputs": [
        {
          "name": "",
          "type": "uint256"
        }
      ],
      "name": "membersAddr",
      "outputs": [
        {
          "name": "",
          "type": "address"
        }
      ],
      "payable": false,
      "stateMutability": "view",
      "type": "function"
    },
    {
      "constant": true,
      "inputs": [],
      "name": "minimumQuorum",
      "outputs": [
        {
          "name": "",
          "type": "uint256"
        }
      ],
      "payable": false,
      "stateMutability": "view",
      "type": "function"
    },
    {
      "constant": true,
      "inputs": [],
      "name": "owner",
      "outputs": [
        {
          "name": "",
          "type": "address"
        }
      ],
      "payable": false,
      "stateMutability": "view",
      "type": "function"
    },
    {
      "constant": true,
      "inputs": [
        {
          "name": "",
          "type": "uint256"
        }
      ],
      "name": "campaignsAddr",
      "outputs": [
        {
          "name": "",
          "type": "address"
        }
      ],
      "payable": false,
      "stateMutability": "view",
      "type": "function"
    },
    {
      "constant": true,
      "inputs": [],
      "name": "majorityMargin",
      "outputs": [
        {
          "name": "",
          "type": "uint256"
        }
      ],
      "payable": false,
      "stateMutability": "view",
      "type": "function"
    },
    {
      "constant": true,
      "inputs": [
        {
          "name": "",
          "type": "uint256"
        }
      ],
      "name": "finishedCampaignsAddr",
      "outputs": [
        {
          "name": "",
          "type": "address"
        }
      ],
      "payable": false,
      "stateMutability": "view",
      "type": "function"
    },
    {
      "constant": false,
      "inputs": [
        {
          "name": "newOwner",
          "type": "address"
        }
      ],
      "name": "transferOwnership",
      "outputs": [],
      "payable": false,
      "stateMutability": "nonpayable",
      "type": "function"
    },
    {
      "inputs": [],
      "payable": false,
      "stateMutability": "nonpayable",
      "type": "constructor"
    },
    {
      "anonymous": false,
      "inputs": [
        {
          "indexed": true,
          "name": "sender",
          "type": "address"
        },
        {
          "indexed": true,
          "name": "wallet",
          "type": "address"
        },
        {
          "indexed": true,
          "name": "amount",
          "type": "uint256"
        },
        {
          "indexed": false,
          "name": "description",
          "type": "string"
        },
        {
          "indexed": false,
          "name": "link",
          "type": "string"
        }
      ],
      "name": "ProposalAdded",
      "type": "event"
    },
    {
      "anonymous": false,
      "inputs": [
        {
          "indexed": true,
          "name": "sender",
          "type": "address"
        },
        {
          "indexed": true,
          "name": "wallet",
          "type": "address"
        },
        {
          "indexed": true,
          "name": "amount",
          "type": "uint256"
        },
        {
          "indexed": false,
          "name": "description",
          "type": "string"
        },
        {
          "indexed": false,
          "name": "link",
          "type": "string"
        }
      ],
      "name": "CampaignAdded",
      "type": "event"
    },
    {
      "anonymous": false,
      "inputs": [
        {
          "indexed": true,
          "name": "sender",
          "type": "address"
        },
        {
          "indexed": true,
          "name": "owner",
          "type": "address"
        },
        {
          "indexed": true,
          "name": "wallet",
          "type": "address"
        },
        {
          "indexed": false,
          "name": "amount",
          "type": "uint256"
        },
        {
          "indexed": false,
          "name": "description",
          "type": "string"
        },
        {
          "indexed": false,
          "name": "link",
          "type": "string"
        }
      ],
      "name": "ProposalPassed",
      "type": "event"
    },
    {
      "anonymous": false,
      "inputs": [
        {
          "indexed": true,
          "name": "sender",
          "type": "address"
        },
        {
          "indexed": true,
          "name": "wallet",
          "type": "address"
        },
        {
          "indexed": true,
          "name": "supportsProposal",
          "type": "bool"
        },
        {
          "indexed": false,
          "name": "comment",
          "type": "string"
        }
      ],
      "name": "Voted",
      "type": "event"
    },
    {
      "anonymous": false,
      "inputs": [
        {
          "indexed": true,
          "name": "sender",
          "type": "address"
        },
        {
          "indexed": true,
          "name": "wallet",
          "type": "address"
        },
        {
          "indexed": true,
          "name": "raisedAmount",
          "type": "uint256"
        },
        {
          "indexed": false,
          "name": "report",
          "type": "string"
        }
      ],
      "name": "FinishCampaign",
      "type": "event"
    },
    {
      "anonymous": false,
      "inputs": [
        {
          "indexed": true,
          "name": "member",
          "type": "address"
        },
        {
          "indexed": true,
          "name": "isMember",
          "type": "bool"
        }
      ],
      "name": "MembershipChanged",
      "type": "event"
    },
    {
      "anonymous": false,
      "inputs": [
        {
          "indexed": true,
          "name": "minimumQuorum",
          "type": "uint256"
        },
        {
          "indexed": true,
          "name": "majorityMargin",
          "type": "uint256"
        }
      ],
      "name": "ChangeOfRules",
      "type": "event"
    },
    {
      "anonymous": false,
      "inputs": [
        {
          "indexed": true,
          "name": "previousOwner",
          "type": "address"
        },
        {
          "indexed": true,
          "name": "newOwner",
          "type": "address"
        }
      ],
      "name": "OwnershipTransferred",
      "type": "event"
    },
    {
      "constant": true,
      "inputs": [],
      "name": "numMembers",
      "outputs": [
        {
          "name": "",
          "type": "uint256"
        }
      ],
      "payable": false,
      "stateMutability": "view",
      "type": "function"
    },
    {
      "constant": true,
      "inputs": [],
      "name": "numCampaigns",
      "outputs": [
        {
          "name": "",
          "type": "uint256"
        }
      ],
      "payable": false,
      "stateMutability": "view",
      "type": "function"
    },
    {
      "constant": true,
      "inputs": [],
      "name": "numProposals",
      "outputs": [
        {
          "name": "",
          "type": "uint256"
        }
      ],
      "payable": false,
      "stateMutability": "view",
      "type": "function"
    },
    {
      "constant": true,
      "inputs": [],
      "name": "numFinishedCampaigns",
      "outputs": [
        {
          "name": "",
          "type": "uint256"
        }
      ],
      "payable": false,
      "stateMutability": "view",
      "type": "function"
    },
    {
      "constant": true,
      "inputs": [
        {
          "name": "_address",
          "type": "address"
        }
      ],
      "name": "getMember",
      "outputs": [
        {
          "name": "active",
          "type": "bool"
        },
        {
          "name": "isMember",
          "type": "bool"
        },
        {
          "name": "name",
          "type": "string"
        },
        {
          "name": "link",
          "type": "string"
        },
        {
          "name": "memberSince",
          "type": "uint256"
        },
        {
          "name": "countCampaigns",
          "type": "uint256"
        },
        {
          "name": "countFinishedCampaigns",
          "type": "uint256"
        }
      ],
      "payable": false,
      "stateMutability": "view",
      "type": "function"
    },
    {
      "constant": true,
      "inputs": [
        {
          "name": "_address",
          "type": "address"
        }
      ],
      "name": "getCampaignCommonInfo",
      "outputs": [
        {
          "name": "isProposal",
          "type": "bool"
        },
        {
          "name": "isCampaign",
          "type": "bool"
        },
        {
          "name": "isFinishedCampaign",
          "type": "bool"
        },
        {
          "name": "owner",
          "type": "address"
        },
        {
          "name": "wallet",
          "type": "address"
        },
        {
          "name": "amount",
          "type": "uint256"
        },
        {
          "name": "description",
          "type": "string"
        }
      ],
      "payable": false,
      "stateMutability": "view",
      "type": "function"
    },
    {
      "constant": true,
      "inputs": [
        {
          "name": "_address",
          "type": "address"
        }
      ],
      "name": "getCampaignProposalInfo",
      "outputs": [
        {
          "name": "isProposal",
          "type": "bool"
        },
        {
          "name": "link",
          "type": "string"
        },
        {
          "name": "countVotes",
          "type": "uint256"
        },
        {
          "name": "currentResult",
          "type": "uint256"
        },
        {
          "name": "proposalDate",
          "type": "uint256"
        },
        {
          "name": "proposalRejected",
          "type": "bool"
        }
      ],
      "payable": false,
      "stateMutability": "view",
      "type": "function"
    },
    {
      "constant": true,
      "inputs": [
        {
          "name": "_address",
          "type": "address"
        }
      ],
      "name": "getCampaignActiveInfo",
      "outputs": [
        {
          "name": "isProposal",
          "type": "bool"
        },
        {
          "name": "link",
          "type": "string"
        },
        {
          "name": "countVotes",
          "type": "uint256"
        },
        {
          "name": "currentResult",
          "type": "uint256"
        },
        {
          "name": "proposalDate",
          "type": "uint256"
        },
        {
          "name": "campaignDate",
          "type": "uint256"
        }
      ],
      "payable": false,
      "stateMutability": "view",
      "type": "function"
    },
    {
      "constant": true,
      "inputs": [
        {
          "name": "_address",
          "type": "address"
        }
      ],
      "name": "getCampaignFinishedInfo",
      "outputs": [
        {
          "name": "link",
          "type": "string"
        },
        {
          "name": "countVotes",
          "type": "uint256"
        },
        {
          "name": "campaignDate",
          "type": "uint256"
        },
        {
          "name": "finishDate",
          "type": "uint256"
        },
        {
          "name": "raisedAmount",
          "type": "uint256"
        },
        {
          "name": "report",
          "type": "string"
        }
      ],
      "payable": false,
      "stateMutability": "view",
      "type": "function"
    },
    {
      "constant": true,
      "inputs": [
        {
          "name": "_address",
          "type": "address"
        },
        {
          "name": "_index",
          "type": "uint256"
        }
      ],
      "name": "getCampaignVoteMemberAddress",
      "outputs": [
        {
          "name": "",
          "type": "address"
        }
      ],
      "payable": false,
      "stateMutability": "view",
      "type": "function"
    },
    {
      "constant": true,
      "inputs": [
        {
          "name": "_addressCampaign",
          "type": "address"
        },
        {
          "name": "_addressMember",
          "type": "address"
        }
      ],
      "name": "getCampaignVoteObject",
      "outputs": [
        {
          "name": "wallet",
          "type": "address"
        },
        {
          "name": "supportsProposal",
          "type": "bool"
        },
        {
          "name": "sender",
          "type": "address"
        },
        {
          "name": "comment",
          "type": "string"
        }
      ],
      "payable": false,
      "stateMutability": "view",
      "type": "function"
    },
    {
      "constant": true,
      "inputs": [
        {
          "name": "_memberAddress",
          "type": "address"
        },
        {
          "name": "_index",
          "type": "uint256"
        }
      ],
      "name": "getMemberCampaignAddress",
      "outputs": [
        {
          "name": "",
          "type": "address"
        }
      ],
      "payable": false,
      "stateMutability": "view",
      "type": "function"
    },
    {
      "constant": true,
      "inputs": [
        {
          "name": "_memberAddress",
          "type": "address"
        },
        {
          "name": "_index",
          "type": "uint256"
        }
      ],
      "name": "getMemberFinishedCampaignAddress",
      "outputs": [
        {
          "name": "",
          "type": "address"
        }
      ],
      "payable": false,
      "stateMutability": "view",
      "type": "function"
    },
    {
      "constant": false,
      "inputs": [
        {
          "name": "_targetMember",
          "type": "address"
        },
        {
          "name": "_memberName",
          "type": "string"
        },
        {
          "name": "_memberLink",
          "type": "string"
        }
      ],
      "name": "addMember",
      "outputs": [],
      "payable": false,
      "stateMutability": "nonpayable",
      "type": "function"
    },
    {
      "constant": false,
      "inputs": [
        {
          "name": "_targetMember",
          "type": "address"
        }
      ],
      "name": "removeMember",
      "outputs": [],
      "payable": false,
      "stateMutability": "nonpayable",
      "type": "function"
    },
    {
      "constant": false,
      "inputs": [
        {
          "name": "_targetMember",
          "type": "address"
        }
      ],
      "name": "activateMember",
      "outputs": [],
      "payable": false,
      "stateMutability": "nonpayable",
      "type": "function"
    },
    {
      "constant": false,
      "inputs": [
        {
          "name": "_targetMember",
          "type": "address"
        }
      ],
      "name": "deactivateMember",
      "outputs": [],
      "payable": false,
      "stateMutability": "nonpayable",
      "type": "function"
    },
    {
      "constant": false,
      "inputs": [
        {
          "name": "_minimumQuorumForProposals",
          "type": "uint256"
        },
        {
          "name": "_marginOfVotesForMajority",
          "type": "uint256"
        }
      ],
      "name": "changeVotingRules",
      "outputs": [],
      "payable": false,
      "stateMutability": "nonpayable",
      "type": "function"
    },
    {
      "constant": false,
      "inputs": [
        {
          "name": "_wallet",
          "type": "address"
        },
        {
          "name": "_amount",
          "type": "uint256"
        },
        {
          "name": "_description",
          "type": "string"
        },
        {
          "name": "_link",
          "type": "string"
        }
      ],
      "name": "newProposal",
      "outputs": [
        {
          "name": "id",
          "type": "uint256"
        }
      ],
      "payable": false,
      "stateMutability": "nonpayable",
      "type": "function"
    },
    {
      "constant": false,
      "inputs": [
        {
          "name": "_wallet",
          "type": "address"
        },
        {
          "name": "_amount",
          "type": "uint256"
        },
        {
          "name": "_description",
          "type": "string"
        },
        {
          "name": "_link",
          "type": "string"
        },
        {
          "name": "_comment",
          "type": "string"
        }
      ],
      "name": "newCampaign",
      "outputs": [
        {
          "name": "id",
          "type": "uint256"
        }
      ],
      "payable": false,
      "stateMutability": "nonpayable",
      "type": "function"
    },
    {
      "constant": false,
      "inputs": [
        {
          "name": "_wallet",
          "type": "address"
        },
        {
          "name": "_supportsProposal",
          "type": "bool"
        },
        {
          "name": "_comment",
          "type": "string"
        }
      ],
      "name": "vote",
      "outputs": [
        {
          "name": "id",
          "type": "uint256"
        }
      ],
      "payable": false,
      "stateMutability": "nonpayable",
      "type": "function"
    },
    {
      "constant": false,
      "inputs": [
        {
          "name": "_wallet",
          "type": "address"
        },
        {
          "name": "_raisedAmount",
          "type": "uint256"
        },
        {
          "name": "_report",
          "type": "string"
        }
      ],
      "name": "finishCampaign",
      "outputs": [
        {
          "name": "",
          "type": "bool"
        }
      ],
      "payable": false,
      "stateMutability": "nonpayable",
      "type": "function"
    }
  ],
  "bytecode": "0x60806040523480156200001157600080fd5b50336000806101000a81548173ffffffffffffffffffffffffffffffffffffffff021916908373ffffffffffffffffffffffffffffffffffffffff1602179055506200006e60018062000074640100000000026401000000009004565b62000114565b6000809054906101000a900473ffffffffffffffffffffffffffffffffffffffff1673ffffffffffffffffffffffffffffffffffffffff163373ffffffffffffffffffffffffffffffffffffffff16141515620000d057600080fd5b81600181905550806002819055506002546001547f4e5482c936e2afb137e294316762dfae82eecfc2c31ab15d926766d513570ad760405160405180910390a35050565b61604d80620001246000396000f300608060405260043610610180576000357c0100000000000000000000000000000000000000000000000000000000900463ffffffff1680630b1ca49a1461018557806311e276f5146101c8578063158059e21461023557806317a873471461026c5780632744fb8f1461034f5780632ada2596146103fa5780632c0f7b6f1461054d578063306061b814610578578063400e3949146105a357806345bb7afe146105ce5780634698d110146107185780634cce91241461074357806362ea1233146108905780636356f977146108fd5780636b16d2b914610a4157806376c1954614610b2e57806378ab262e14610bfd5780638160f0b514610c40578063835939d514610c6b5780638da5cb5b14610d145780639ba8bb8814610d6b578063a2c34bd614610e52578063a3673e9514610ebf578063aa02a90f14610ff2578063d4f3476d1461101d578063d5e2a1e314611060578063d64a4464146110ed578063e651d4061461115a578063ebc3e9b0146111e7578063f2fde38b14611274575b600080fd5b34801561019157600080fd5b506101c6600480360381019080803573ffffffffffffffffffffffffffffffffffffffff1690602001909291905050506112b7565b005b3480156101d457600080fd5b506101f3600480360381019080803590602001909291905050506115b0565b604051808273ffffffffffffffffffffffffffffffffffffffff1673ffffffffffffffffffffffffffffffffffffffff16815260200191505060405180910390f35b34801561024157600080fd5b5061026a60048036038101908080359060200190929190803590602001909291905050506115ee565b005b34801561027857600080fd5b506102ad600480360381019080803573ffffffffffffffffffffffffffffffffffffffff16906020019092919050505061168d565b604051808715151515815260200180602001868152602001858152602001848152602001838152602001828103825287818151815260200191508051906020019080838360005b8381101561030f5780820151818401526020810190506102f4565b50505050905090810190601f16801561033c5780820380516001836020036101000a031916815260200191505b5097505050505050505060405180910390f35b34801561035b57600080fd5b506103e0600480360381019080803573ffffffffffffffffffffffffffffffffffffffff16906020019092919080359060200190929190803590602001908201803590602001908080601f01602080910402602001604051908101604052809392919081815260200183838082843782019150505050505091929192905050506118e9565b604051808215151515815260200191505060405180910390f35b34801561040657600080fd5b5061043b600480360381019080803573ffffffffffffffffffffffffffffffffffffffff1690602001909291905050506121c1565b6040518088151515158152602001871515151581526020018060200180602001868152602001858152602001848152602001838103835288818151815260200191508051906020019080838360005b838110156104a557808201518184015260208101905061048a565b50505050905090810190601f1680156104d25780820380516001836020036101000a031916815260200191505b50838103825287818151815260200191508051906020019080838360005b8381101561050b5780820151818401526020810190506104f0565b50505050905090810190601f1680156105385780820380516001836020036101000a031916815260200191505b50995050505050505050505060405180910390f35b34801561055957600080fd5b50610562612510565b6040518082815260200191505060405180910390f35b34801561058457600080fd5b5061058d61251d565b6040518082815260200191505060405180910390f35b3480156105af57600080fd5b506105b861252a565b6040518082815260200191505060405180910390f35b3480156105da57600080fd5b5061060f600480360381019080803573ffffffffffffffffffffffffffffffffffffffff169060200190929190505050612537565b604051808815151515815260200187151515158152602001861515151581526020018573ffffffffffffffffffffffffffffffffffffffff1673ffffffffffffffffffffffffffffffffffffffff1681526020018473ffffffffffffffffffffffffffffffffffffffff1673ffffffffffffffffffffffffffffffffffffffff16815260200183815260200180602001828103825283818151815260200191508051906020019080838360005b838110156106d75780820151818401526020810190506106bc565b50505050905090810190601f1680156107045780820380516001836020036101000a031916815260200191505b509850505050505050505060405180910390f35b34801561072457600080fd5b5061072d612832565b6040518082815260200191505060405180910390f35b34801561074f57600080fd5b506107a4600480360381019080803573ffffffffffffffffffffffffffffffffffffffff169060200190929190803573ffffffffffffffffffffffffffffffffffffffff16906020019092919050505061283f565b604051808573ffffffffffffffffffffffffffffffffffffffff1673ffffffffffffffffffffffffffffffffffffffff168152602001841515151581526020018373ffffffffffffffffffffffffffffffffffffffff1673ffffffffffffffffffffffffffffffffffffffff16815260200180602001828103825283818151815260200191508051906020019080838360005b83811015610852578082015181840152602081019050610837565b50505050905090810190601f16801561087f5780820380516001836020036101000a031916815260200191505b509550505050505060405180910390f35b34801561089c57600080fd5b506108bb60048036038101908080359060200190929190505050612b4b565b604051808273ffffffffffffffffffffffffffffffffffffffff1673ffffffffffffffffffffffffffffffffffffffff16815260200191505060405180910390f35b34801561090957600080fd5b5061093e600480360381019080803573ffffffffffffffffffffffffffffffffffffffff169060200190929190505050612b89565b604051808060200187815260200186815260200185815260200184815260200180602001838103835289818151815260200191508051906020019080838360005b8381101561099a57808201518184015260208101905061097f565b50505050905090810190601f1680156109c75780820380516001836020036101000a031916815260200191505b50838103825284818151815260200191508051906020019080838360005b83811015610a005780820151818401526020810190506109e5565b50505050905090810190601f168015610a2d5780820380516001836020036101000a031916815260200191505b509850505050505050505060405180910390f35b348015610a4d57600080fd5b50610b18600480360381019080803573ffffffffffffffffffffffffffffffffffffffff16906020019092919080359060200190929190803590602001908201803590602001908080601f0160208091040260200160405190810160405280939291908181526020018383808284378201915050505050509192919290803590602001908201803590602001908080601f0160208091040260200160405190810160405280939291908181526020018383808284378201915050505050509192919290505050612e73565b6040518082815260200191505060405180910390f35b348015610b3a57600080fd5b50610bfb600480360381019080803573ffffffffffffffffffffffffffffffffffffffff169060200190929190803590602001908201803590602001908080601f0160208091040260200160405190810160405280939291908181526020018383808284378201915050505050509192919290803590602001908201803590602001908080601f01602080910402602001604051908101604052809392919081815260200183838082843782019150505050505091929192905050506135d6565b005b348015610c0957600080fd5b50610c3e600480360381019080803573ffffffffffffffffffffffffffffffffffffffff1690602001909291905050506139d9565b005b348015610c4c57600080fd5b50610c55613b34565b6040518082815260200191505060405180910390f35b348015610c7757600080fd5b50610cfe600480360381019080803573ffffffffffffffffffffffffffffffffffffffff169060200190929190803515159060200190929190803590602001908201803590602001908080601f0160208091040260200160405190810160405280939291908181526020018383808284378201915050505050509192919290505050613b3a565b6040518082815260200191505060405180910390f35b348015610d2057600080fd5b50610d29614b06565b604051808273ffffffffffffffffffffffffffffffffffffffff1673ffffffffffffffffffffffffffffffffffffffff16815260200191505060405180910390f35b348015610d7757600080fd5b50610dac600480360381019080803573ffffffffffffffffffffffffffffffffffffffff169060200190929190505050614b2b565b60405180871515151581526020018060200186815260200185815260200184815260200183151515158152602001828103825287818151815260200191508051906020019080838360005b83811015610e12578082015181840152602081019050610df7565b50505050905090810190601f168015610e3f5780820380516001836020036101000a031916815260200191505b5097505050505050505060405180910390f35b348015610e5e57600080fd5b50610e7d60048036038101908080359060200190929190505050614d94565b604051808273ffffffffffffffffffffffffffffffffffffffff1673ffffffffffffffffffffffffffffffffffffffff16815260200191505060405180910390f35b348015610ecb57600080fd5b50610fdc600480360381019080803573ffffffffffffffffffffffffffffffffffffffff16906020019092919080359060200190929190803590602001908201803590602001908080601f0160208091040260200160405190810160405280939291908181526020018383808284378201915050505050509192919290803590602001908201803590602001908080601f0160208091040260200160405190810160405280939291908181526020018383808284378201915050505050509192919290803590602001908201803590602001908080601f0160208091040260200160405190810160405280939291908181526020018383808284378201915050505050509192919290505050614dd2565b6040518082815260200191505060405180910390f35b348015610ffe57600080fd5b506110076159f9565b6040518082815260200191505060405180910390f35b34801561102957600080fd5b5061105e600480360381019080803573ffffffffffffffffffffffffffffffffffffffff1690602001909291905050506159ff565b005b34801561106c57600080fd5b506110ab600480360381019080803573ffffffffffffffffffffffffffffffffffffffff16906020019092919080359060200190929190505050615b5a565b604051808273ffffffffffffffffffffffffffffffffffffffff1673ffffffffffffffffffffffffffffffffffffffff16815260200191505060405180910390f35b3480156110f957600080fd5b5061111860048036038101908080359060200190929190505050615bde565b604051808273ffffffffffffffffffffffffffffffffffffffff1673ffffffffffffffffffffffffffffffffffffffff16815260200191505060405180910390f35b34801561116657600080fd5b506111a5600480360381019080803573ffffffffffffffffffffffffffffffffffffffff16906020019092919080359060200190929190505050615c1c565b604051808273ffffffffffffffffffffffffffffffffffffffff1673ffffffffffffffffffffffffffffffffffffffff16815260200191505060405180910390f35b3480156111f357600080fd5b50611232600480360381019080803573ffffffffffffffffffffffffffffffffffffffff16906020019092919080359060200190929190505050615ca0565b604051808273ffffffffffffffffffffffffffffffffffffffff1673ffffffffffffffffffffffffffffffffffffffff16815260200191505060405180910390f35b34801561128057600080fd5b506112b5600480360381019080803573ffffffffffffffffffffffffffffffffffffffff169060200190929190505050615d24565b005b6000806000809054906101000a900473ffffffffffffffffffffffffffffffffffffffff1673ffffffffffffffffffffffffffffffffffffffff163373ffffffffffffffffffffffffffffffffffffffff1614151561131557600080fd5b600360008473ffffffffffffffffffffffffffffffffffffffff1673ffffffffffffffffffffffffffffffffffffffff16815260200190815260200160002060000160159054906101000a900460ff16151561137057600080fd5b6000600360008573ffffffffffffffffffffffffffffffffffffffff1673ffffffffffffffffffffffffffffffffffffffff16815260200190815260200160002060000160146101000a81548160ff0219169083151502179055506000600360008573ffffffffffffffffffffffffffffffffffffffff1673ffffffffffffffffffffffffffffffffffffffff16815260200190815260200160002060000160156101000a81548160ff021916908315150217905550600360008473ffffffffffffffffffffffffffffffffffffffff1673ffffffffffffffffffffffffffffffffffffffff168152602001908152602001600020600601549150600460016004805490500381548110151561148257fe5b9060005260206000200160009054906101000a900473ffffffffffffffffffffffffffffffffffffffff169050806004838154811015156114bf57fe5b9060005260206000200160006101000a81548173ffffffffffffffffffffffffffffffffffffffff021916908373ffffffffffffffffffffffffffffffffffffffff16021790555081600360008373ffffffffffffffffffffffffffffffffffffffff1673ffffffffffffffffffffffffffffffffffffffff1681526020019081526020016000206006018190555060048054809190600190036115639190615e79565b50600015158373ffffffffffffffffffffffffffffffffffffffff167f27b022af4a8347100c7a041ce5ccf8e14d644ff05de696315196faae8cd50c9b60405160405180910390a3505050565b6007818154811015156115bf57fe5b906000526020600020016000915054906101000a900473ffffffffffffffffffffffffffffffffffffffff1681565b6000809054906101000a900473ffffffffffffffffffffffffffffffffffffffff1673ffffffffffffffffffffffffffffffffffffffff163373ffffffffffffffffffffffffffffffffffffffff1614151561164957600080fd5b81600181905550806002819055506002546001547f4e5482c936e2afb137e294316762dfae82eecfc2c31ab15d926766d513570ad760405160405180910390a35050565b60006060600080600080600560008873ffffffffffffffffffffffffffffffffffffffff1673ffffffffffffffffffffffffffffffffffffffff16815260200190815260200160002060000160009054906101000a900460ff16600560008973ffffffffffffffffffffffffffffffffffffffff1673ffffffffffffffffffffffffffffffffffffffff168152602001908152602001600020600801600560008a73ffffffffffffffffffffffffffffffffffffffff1673ffffffffffffffffffffffffffffffffffffffff16815260200190815260200160002060090180549050600560008b73ffffffffffffffffffffffffffffffffffffffff1673ffffffffffffffffffffffffffffffffffffffff168152602001908152602001600020600d0154600560008c73ffffffffffffffffffffffffffffffffffffffff1673ffffffffffffffffffffffffffffffffffffffff168152602001908152602001600020600e0154600560008d73ffffffffffffffffffffffffffffffffffffffff1673ffffffffffffffffffffffffffffffffffffffff16815260200190815260200160002060100154848054600181600116156101000203166002900480601f0160208091040260200160405190810160405280929190818152602001828054600181600116156101000203166002900480156118cd5780601f106118a2576101008083540402835291602001916118cd565b820191906000526020600020905b8154815290600101906020018083116118b057829003601f168201915b5050505050945095509550955095509550955091939550919395565b6000806000600360003373ffffffffffffffffffffffffffffffffffffffff1673ffffffffffffffffffffffffffffffffffffffff16815260200190815260200160002060000160159054906101000a900460ff16151561194957600080fd5b600360003373ffffffffffffffffffffffffffffffffffffffff1673ffffffffffffffffffffffffffffffffffffffff16815260200190815260200160002060000160149054906101000a900460ff1615156119a457600080fd5b60008673ffffffffffffffffffffffffffffffffffffffff16141515156119ca57600080fd5b600560008773ffffffffffffffffffffffffffffffffffffffff1673ffffffffffffffffffffffffffffffffffffffff16815260200190815260200160002060000160009054906101000a900460ff16151515611a2657600080fd5b600560008773ffffffffffffffffffffffffffffffffffffffff1673ffffffffffffffffffffffffffffffffffffffff16815260200190815260200160002060000160019054906101000a900460ff161515611a8157600080fd5b600560008773ffffffffffffffffffffffffffffffffffffffff1673ffffffffffffffffffffffffffffffffffffffff16815260200190815260200160002060000160029054906101000a900460ff16151515611add57600080fd5b600560008773ffffffffffffffffffffffffffffffffffffffff1673ffffffffffffffffffffffffffffffffffffffff168152602001908152602001600020600a0160003373ffffffffffffffffffffffffffffffffffffffff1673ffffffffffffffffffffffffffffffffffffffff16815260200190815260200160002060009054906101000a900460ff161515611b7557600080fd5b600560008773ffffffffffffffffffffffffffffffffffffffff1673ffffffffffffffffffffffffffffffffffffffff168152602001908152602001600020600f0160009054906101000a900460ff16151515611bd157600080fd5b600560008773ffffffffffffffffffffffffffffffffffffffff1673ffffffffffffffffffffffffffffffffffffffff1681526020019081526020016000206002015491506006600160068054905003815481101515611c2d57fe5b9060005260206000200160009054906101000a900473ffffffffffffffffffffffffffffffffffffffff16905080600683815481101515611c6a57fe5b9060005260206000200160006101000a81548173ffffffffffffffffffffffffffffffffffffffff021916908373ffffffffffffffffffffffffffffffffffffffff16021790555081600560008373ffffffffffffffffffffffffffffffffffffffff1673ffffffffffffffffffffffffffffffffffffffff168152602001908152602001600020600201819055506006805480919060019003611d0e9190615e79565b506000600560008873ffffffffffffffffffffffffffffffffffffffff1673ffffffffffffffffffffffffffffffffffffffff168152602001908152602001600020600101819055506000600560008873ffffffffffffffffffffffffffffffffffffffff1673ffffffffffffffffffffffffffffffffffffffff16815260200190815260200160002060020181905550600160088790806001815401808255809150509060018203906000526020600020016000909192909190916101000a81548173ffffffffffffffffffffffffffffffffffffffff021916908373ffffffffffffffffffffffffffffffffffffffff16021790555003600560008873ffffffffffffffffffffffffffffffffffffffff1673ffffffffffffffffffffffffffffffffffffffff168152602001908152602001600020600301819055506000600560008873ffffffffffffffffffffffffffffffffffffffff1673ffffffffffffffffffffffffffffffffffffffff16815260200190815260200160002060000160006101000a81548160ff0219169083151502179055506000600560008873ffffffffffffffffffffffffffffffffffffffff1673ffffffffffffffffffffffffffffffffffffffff16815260200190815260200160002060000160016101000a81548160ff0219169083151502179055506001600560008873ffffffffffffffffffffffffffffffffffffffff1673ffffffffffffffffffffffffffffffffffffffff16815260200190815260200160002060000160026101000a81548160ff02191690831515021790555042600560008873ffffffffffffffffffffffffffffffffffffffff1673ffffffffffffffffffffffffffffffffffffffff1681526020019081526020016000206011018190555084600560008873ffffffffffffffffffffffffffffffffffffffff1673ffffffffffffffffffffffffffffffffffffffff1681526020019081526020016000206012018190555083600560008873ffffffffffffffffffffffffffffffffffffffff1673ffffffffffffffffffffffffffffffffffffffff1681526020019081526020016000206013019080519060200190612042929190615ea5565b50600360003373ffffffffffffffffffffffffffffffffffffffff1673ffffffffffffffffffffffffffffffffffffffff1681526020019081526020016000206005018690806001815401808255809150509060018203906000526020600020016000909192909190916101000a81548173ffffffffffffffffffffffffffffffffffffffff021916908373ffffffffffffffffffffffffffffffffffffffff16021790555050848673ffffffffffffffffffffffffffffffffffffffff163373ffffffffffffffffffffffffffffffffffffffff167f15906621bb065f2db106b7c0bc55bdb71cb8b49ab49a2db54f7b39c81f736985876040518080602001828103825283818151815260200191508051906020019080838360005b8381101561217a57808201518184015260208101905061215f565b50505050905090810190601f1680156121a75780820380516001836020036101000a031916815260200191505b509250505060405180910390a46001925050509392505050565b6000806060806000806000600360008973ffffffffffffffffffffffffffffffffffffffff1673ffffffffffffffffffffffffffffffffffffffff16815260200190815260200160002060000160149054906101000a900460ff16600360008a73ffffffffffffffffffffffffffffffffffffffff1673ffffffffffffffffffffffffffffffffffffffff16815260200190815260200160002060000160159054906101000a900460ff16600360008b73ffffffffffffffffffffffffffffffffffffffff1673ffffffffffffffffffffffffffffffffffffffff168152602001908152602001600020600101600360008c73ffffffffffffffffffffffffffffffffffffffff1673ffffffffffffffffffffffffffffffffffffffff168152602001908152602001600020600201600360008d73ffffffffffffffffffffffffffffffffffffffff1673ffffffffffffffffffffffffffffffffffffffff16815260200190815260200160002060030154600360008e73ffffffffffffffffffffffffffffffffffffffff1673ffffffffffffffffffffffffffffffffffffffff16815260200190815260200160002060040180549050600360008f73ffffffffffffffffffffffffffffffffffffffff1673ffffffffffffffffffffffffffffffffffffffff16815260200190815260200160002060050180549050848054600181600116156101000203166002900480601f0160208091040260200160405190810160405280929190818152602001828054600181600116156101000203166002900480156124545780601f1061242957610100808354040283529160200191612454565b820191906000526020600020905b81548152906001019060200180831161243757829003601f168201915b50505050509450838054600181600116156101000203166002900480601f0160208091040260200160405190810160405280929190818152602001828054600181600116156101000203166002900480156124f05780601f106124c5576101008083540402835291602001916124f0565b820191906000526020600020905b8154815290600101906020018083116124d357829003601f168201915b505050505093509650965096509650965096509650919395979092949650565b6000600680549050905090565b6000600880549050905090565b6000600780549050905090565b6000806000806000806060600560008973ffffffffffffffffffffffffffffffffffffffff1673ffffffffffffffffffffffffffffffffffffffff16815260200190815260200160002060000160009054906101000a900460ff16600560008a73ffffffffffffffffffffffffffffffffffffffff1673ffffffffffffffffffffffffffffffffffffffff16815260200190815260200160002060000160019054906101000a900460ff16600560008b73ffffffffffffffffffffffffffffffffffffffff1673ffffffffffffffffffffffffffffffffffffffff16815260200190815260200160002060000160029054906101000a900460ff16600560008c73ffffffffffffffffffffffffffffffffffffffff1673ffffffffffffffffffffffffffffffffffffffff16815260200190815260200160002060040160009054906101000a900473ffffffffffffffffffffffffffffffffffffffff16600560008d73ffffffffffffffffffffffffffffffffffffffff1673ffffffffffffffffffffffffffffffffffffffff16815260200190815260200160002060050160009054906101000a900473ffffffffffffffffffffffffffffffffffffffff16600560008e73ffffffffffffffffffffffffffffffffffffffff1673ffffffffffffffffffffffffffffffffffffffff16815260200190815260200160002060060154600560008f73ffffffffffffffffffffffffffffffffffffffff1673ffffffffffffffffffffffffffffffffffffffff168152602001908152602001600020600701808054600181600116156101000203166002900480601f0160208091040260200160405190810160405280929190818152602001828054600181600116156101000203166002900480156128125780601f106127e757610100808354040283529160200191612812565b820191906000526020600020905b8154815290600101906020018083116127f557829003601f168201915b505050505090509650965096509650965096509650919395979092949650565b6000600480549050905090565b60008060006060600560008773ffffffffffffffffffffffffffffffffffffffff1673ffffffffffffffffffffffffffffffffffffffff168152602001908152602001600020600b0160008673ffffffffffffffffffffffffffffffffffffffff1673ffffffffffffffffffffffffffffffffffffffff16815260200190815260200160002060000160009054906101000a900473ffffffffffffffffffffffffffffffffffffffff16600560008873ffffffffffffffffffffffffffffffffffffffff1673ffffffffffffffffffffffffffffffffffffffff168152602001908152602001600020600b0160008773ffffffffffffffffffffffffffffffffffffffff1673ffffffffffffffffffffffffffffffffffffffff16815260200190815260200160002060000160149054906101000a900460ff16600560008973ffffffffffffffffffffffffffffffffffffffff1673ffffffffffffffffffffffffffffffffffffffff168152602001908152602001600020600b0160008873ffffffffffffffffffffffffffffffffffffffff1673ffffffffffffffffffffffffffffffffffffffff16815260200190815260200160002060010160009054906101000a900473ffffffffffffffffffffffffffffffffffffffff16600560008a73ffffffffffffffffffffffffffffffffffffffff1673ffffffffffffffffffffffffffffffffffffffff168152602001908152602001600020600b0160008973ffffffffffffffffffffffffffffffffffffffff1673ffffffffffffffffffffffffffffffffffffffff168152602001908152602001600020600201808054600181600116156101000203166002900480601f016020809104026020016040519081016040528092919081815260200182805460018160011615610100020316600290048015612b335780601f10612b0857610100808354040283529160200191612b33565b820191906000526020600020905b815481529060010190602001808311612b1657829003601f168201915b50505050509050935093509350935092959194509250565b600481815481101515612b5a57fe5b906000526020600020016000915054906101000a900473ffffffffffffffffffffffffffffffffffffffff1681565b60606000806000806060600560008873ffffffffffffffffffffffffffffffffffffffff1673ffffffffffffffffffffffffffffffffffffffff168152602001908152602001600020600801600560008973ffffffffffffffffffffffffffffffffffffffff1673ffffffffffffffffffffffffffffffffffffffff16815260200190815260200160002060090180549050600560008a73ffffffffffffffffffffffffffffffffffffffff1673ffffffffffffffffffffffffffffffffffffffff16815260200190815260200160002060100154600560008b73ffffffffffffffffffffffffffffffffffffffff1673ffffffffffffffffffffffffffffffffffffffff16815260200190815260200160002060110154600560008c73ffffffffffffffffffffffffffffffffffffffff1673ffffffffffffffffffffffffffffffffffffffff16815260200190815260200160002060120154600560008d73ffffffffffffffffffffffffffffffffffffffff1673ffffffffffffffffffffffffffffffffffffffff168152602001908152602001600020601301858054600181600116156101000203166002900480601f016020809104026020016040519081016040528092919081815260200182805460018160011615610100020316600290048015612dbb5780601f10612d9057610100808354040283529160200191612dbb565b820191906000526020600020905b815481529060010190602001808311612d9e57829003601f168201915b50505050509550808054600181600116156101000203166002900480601f016020809104026020016040519081016040528092919081815260200182805460018160011615610100020316600290048015612e575780601f10612e2c57610100808354040283529160200191612e57565b820191906000526020600020905b815481529060010190602001808311612e3a57829003601f168201915b5050505050905095509550955095509550955091939550919395565b6000808573ffffffffffffffffffffffffffffffffffffffff1614151515612e9a57600080fd5b600560008673ffffffffffffffffffffffffffffffffffffffff1673ffffffffffffffffffffffffffffffffffffffff16815260200190815260200160002060000160009054906101000a900460ff16151515612ef657600080fd5b600560008673ffffffffffffffffffffffffffffffffffffffff1673ffffffffffffffffffffffffffffffffffffffff16815260200190815260200160002060000160019054906101000a900460ff16151515612f5257600080fd5b600560008673ffffffffffffffffffffffffffffffffffffffff1673ffffffffffffffffffffffffffffffffffffffff16815260200190815260200160002060000160029054906101000a900460ff16151515612fae57600080fd5b600160078690806001815401808255809150509060018203906000526020600020016000909192909190916101000a81548173ffffffffffffffffffffffffffffffffffffffff021916908373ffffffffffffffffffffffffffffffffffffffff16021790555003600560008773ffffffffffffffffffffffffffffffffffffffff1673ffffffffffffffffffffffffffffffffffffffff168152602001908152602001600020600101819055506001600560008773ffffffffffffffffffffffffffffffffffffffff1673ffffffffffffffffffffffffffffffffffffffff16815260200190815260200160002060000160006101000a81548160ff0219169083151502179055506000600560008773ffffffffffffffffffffffffffffffffffffffff1673ffffffffffffffffffffffffffffffffffffffff16815260200190815260200160002060000160016101000a81548160ff0219169083151502179055506000600560008773ffffffffffffffffffffffffffffffffffffffff1673ffffffffffffffffffffffffffffffffffffffff16815260200190815260200160002060000160026101000a81548160ff02191690831515021790555033600560008773ffffffffffffffffffffffffffffffffffffffff1673ffffffffffffffffffffffffffffffffffffffff16815260200190815260200160002060040160006101000a81548173ffffffffffffffffffffffffffffffffffffffff021916908373ffffffffffffffffffffffffffffffffffffffff16021790555084600560008773ffffffffffffffffffffffffffffffffffffffff1673ffffffffffffffffffffffffffffffffffffffff16815260200190815260200160002060050160006101000a81548173ffffffffffffffffffffffffffffffffffffffff021916908373ffffffffffffffffffffffffffffffffffffffff16021790555083600560008773ffffffffffffffffffffffffffffffffffffffff1673ffffffffffffffffffffffffffffffffffffffff1681526020019081526020016000206006018190555082600560008773ffffffffffffffffffffffffffffffffffffffff1673ffffffffffffffffffffffffffffffffffffffff168152602001908152602001600020600701908051906020019061330c929190615ea5565b5081600560008773ffffffffffffffffffffffffffffffffffffffff1673ffffffffffffffffffffffffffffffffffffffff1681526020019081526020016000206008019080519060200190613363929190615ea5565b506000600560008773ffffffffffffffffffffffffffffffffffffffff1673ffffffffffffffffffffffffffffffffffffffff168152602001908152602001600020600c01819055506000600560008773ffffffffffffffffffffffffffffffffffffffff1673ffffffffffffffffffffffffffffffffffffffff168152602001908152602001600020600d018190555042600560008773ffffffffffffffffffffffffffffffffffffffff1673ffffffffffffffffffffffffffffffffffffffff168152602001908152602001600020600e01819055506000600560008773ffffffffffffffffffffffffffffffffffffffff1673ffffffffffffffffffffffffffffffffffffffff168152602001908152602001600020600f0160006101000a81548160ff021916908315150217905550838573ffffffffffffffffffffffffffffffffffffffff163373ffffffffffffffffffffffffffffffffffffffff167f987738675b7cea7cd9db53ef879553c3209b39b614b1b49778a97b1c6a732dde8686604051808060200180602001838103835285818151815260200191508051906020019080838360005b8381101561352c578082015181840152602081019050613511565b50505050905090810190601f1680156135595780820380516001836020036101000a031916815260200191505b50838103825284818151815260200191508051906020019080838360005b83811015613592578082015181840152602081019050613577565b50505050905090810190601f1680156135bf5780820380516001836020036101000a031916815260200191505b5094505050505060405180910390a4949350505050565b6000809054906101000a900473ffffffffffffffffffffffffffffffffffffffff1673ffffffffffffffffffffffffffffffffffffffff163373ffffffffffffffffffffffffffffffffffffffff1614151561363157600080fd5b60008373ffffffffffffffffffffffffffffffffffffffff161415151561365757600080fd5b600360008473ffffffffffffffffffffffffffffffffffffffff1673ffffffffffffffffffffffffffffffffffffffff16815260200190815260200160002060000160159054906101000a900460ff161515156136b357600080fd5b600160048490806001815401808255809150509060018203906000526020600020016000909192909190916101000a81548173ffffffffffffffffffffffffffffffffffffffff021916908373ffffffffffffffffffffffffffffffffffffffff16021790555003600360008573ffffffffffffffffffffffffffffffffffffffff1673ffffffffffffffffffffffffffffffffffffffff168152602001908152602001600020600601819055506001600360008573ffffffffffffffffffffffffffffffffffffffff1673ffffffffffffffffffffffffffffffffffffffff16815260200190815260200160002060000160146101000a81548160ff0219169083151502179055506001600360008573ffffffffffffffffffffffffffffffffffffffff1673ffffffffffffffffffffffffffffffffffffffff16815260200190815260200160002060000160156101000a81548160ff02191690831515021790555082600360008573ffffffffffffffffffffffffffffffffffffffff1673ffffffffffffffffffffffffffffffffffffffff16815260200190815260200160002060000160006101000a81548173ffffffffffffffffffffffffffffffffffffffff021916908373ffffffffffffffffffffffffffffffffffffffff16021790555081600360008573ffffffffffffffffffffffffffffffffffffffff1673ffffffffffffffffffffffffffffffffffffffff16815260200190815260200160002060010190805190602001906138ee929190615ea5565b5080600360008573ffffffffffffffffffffffffffffffffffffffff1673ffffffffffffffffffffffffffffffffffffffff1681526020019081526020016000206002019080519060200190613945929190615ea5565b5042600360008573ffffffffffffffffffffffffffffffffffffffff1673ffffffffffffffffffffffffffffffffffffffff16815260200190815260200160002060030181905550600115158373ffffffffffffffffffffffffffffffffffffffff167f27b022af4a8347100c7a041ce5ccf8e14d644ff05de696315196faae8cd50c9b60405160405180910390a3505050565b6000809054906101000a900473ffffffffffffffffffffffffffffffffffffffff1673ffffffffffffffffffffffffffffffffffffffff163373ffffffffffffffffffffffffffffffffffffffff16141515613a3457600080fd5b600360008273ffffffffffffffffffffffffffffffffffffffff1673ffffffffffffffffffffffffffffffffffffffff16815260200190815260200160002060000160159054906101000a900460ff161515613a8f57600080fd5b6001600360008373ffffffffffffffffffffffffffffffffffffffff1673ffffffffffffffffffffffffffffffffffffffff16815260200190815260200160002060000160146101000a81548160ff021916908315150217905550600115158173ffffffffffffffffffffffffffffffffffffffff167f27b022af4a8347100c7a041ce5ccf8e14d644ff05de696315196faae8cd50c9b60405160405180910390a350565b60015481565b6000613b44615f25565b600080600360003373ffffffffffffffffffffffffffffffffffffffff1673ffffffffffffffffffffffffffffffffffffffff16815260200190815260200160002060000160159054906101000a900460ff161515613ba257600080fd5b600360003373ffffffffffffffffffffffffffffffffffffffff1673ffffffffffffffffffffffffffffffffffffffff16815260200190815260200160002060000160149054906101000a900460ff161515613bfd57600080fd5b60008773ffffffffffffffffffffffffffffffffffffffff1614151515613c2357600080fd5b600560008873ffffffffffffffffffffffffffffffffffffffff1673ffffffffffffffffffffffffffffffffffffffff16815260200190815260200160002060000160009054906101000a900460ff161515613c7e57600080fd5b600560008873ffffffffffffffffffffffffffffffffffffffff1673ffffffffffffffffffffffffffffffffffffffff16815260200190815260200160002060000160019054906101000a900460ff16151515613cda57600080fd5b600560008873ffffffffffffffffffffffffffffffffffffffff1673ffffffffffffffffffffffffffffffffffffffff16815260200190815260200160002060000160029054906101000a900460ff16151515613d3657600080fd5b600560008873ffffffffffffffffffffffffffffffffffffffff1673ffffffffffffffffffffffffffffffffffffffff168152602001908152602001600020600a0160003373ffffffffffffffffffffffffffffffffffffffff1673ffffffffffffffffffffffffffffffffffffffff16815260200190815260200160002060009054906101000a900460ff16151515613dcf57600080fd5b600560008873ffffffffffffffffffffffffffffffffffffffff1673ffffffffffffffffffffffffffffffffffffffff168152602001908152602001600020600f0160009054906101000a900460ff16151515613e2b57600080fd5b6001600560008973ffffffffffffffffffffffffffffffffffffffff1673ffffffffffffffffffffffffffffffffffffffff168152602001908152602001600020600a0160003373ffffffffffffffffffffffffffffffffffffffff1673ffffffffffffffffffffffffffffffffffffffff16815260200190815260200160002060006101000a81548160ff021916908315150217905550600560008873ffffffffffffffffffffffffffffffffffffffff1673ffffffffffffffffffffffffffffffffffffffff1681526020019081526020016000206009013390806001815401808255809150509060018203906000526020600020016000909192909190916101000a81548173ffffffffffffffffffffffffffffffffffffffff021916908373ffffffffffffffffffffffffffffffffffffffff1602179055505086836000019073ffffffffffffffffffffffffffffffffffffffff16908173ffffffffffffffffffffffffffffffffffffffff16815250508583602001901515908115158152505033836040019073ffffffffffffffffffffffffffffffffffffffff16908173ffffffffffffffffffffffffffffffffffffffff168152505084836060018190525082600560008973ffffffffffffffffffffffffffffffffffffffff1673ffffffffffffffffffffffffffffffffffffffff168152602001908152602001600020600b0160003373ffffffffffffffffffffffffffffffffffffffff1673ffffffffffffffffffffffffffffffffffffffff16815260200190815260200160002060008201518160000160006101000a81548173ffffffffffffffffffffffffffffffffffffffff021916908373ffffffffffffffffffffffffffffffffffffffff16021790555060208201518160000160146101000a81548160ff02191690831515021790555060408201518160010160006101000a81548173ffffffffffffffffffffffffffffffffffffffff021916908373ffffffffffffffffffffffffffffffffffffffff160217905550606082015181600201908051906020019061413c929190615f7c565b50905050600560008873ffffffffffffffffffffffffffffffffffffffff1673ffffffffffffffffffffffffffffffffffffffff168152602001908152602001600020600c016000815480929190600101919050555085156141eb57600560008873ffffffffffffffffffffffffffffffffffffffff1673ffffffffffffffffffffffffffffffffffffffff168152602001908152602001600020600d01600081548092919060010191905055505b600360003373ffffffffffffffffffffffffffffffffffffffff1673ffffffffffffffffffffffffffffffffffffffff1681526020019081526020016000206004018790806001815401808255809150509060018203906000526020600020016000909192909190916101000a81548173ffffffffffffffffffffffffffffffffffffffff021916908373ffffffffffffffffffffffffffffffffffffffff160217905550508515158773ffffffffffffffffffffffffffffffffffffffff163373ffffffffffffffffffffffffffffffffffffffff167fff2150d7b560e8a95c872593b6ddca85b196fb2153e371e587e14a4d1e323701886040518080602001828103825283818151815260200191508051906020019080838360005b83811015614324578082015181840152602081019050614309565b50505050905090810190601f1680156143515780820380516001836020036101000a031916815260200191505b509250505060405180910390a4600154600560008973ffffffffffffffffffffffffffffffffffffffff1673ffffffffffffffffffffffffffffffffffffffff168152602001908152602001600020600c0154101515614ab757600254600560008973ffffffffffffffffffffffffffffffffffffffff1673ffffffffffffffffffffffffffffffffffffffff168152602001908152602001600020600d0154101515614a5a57600560008873ffffffffffffffffffffffffffffffffffffffff1673ffffffffffffffffffffffffffffffffffffffff168152602001908152602001600020600101549150600760016007805490500381548110151561445457fe5b9060005260206000200160009054906101000a900473ffffffffffffffffffffffffffffffffffffffff1690508060078381548110151561449157fe5b9060005260206000200160006101000a81548173ffffffffffffffffffffffffffffffffffffffff021916908373ffffffffffffffffffffffffffffffffffffffff16021790555081600560008373ffffffffffffffffffffffffffffffffffffffff1673ffffffffffffffffffffffffffffffffffffffff1681526020019081526020016000206001018190555060078054809190600190036145359190615e79565b506000600560008973ffffffffffffffffffffffffffffffffffffffff1673ffffffffffffffffffffffffffffffffffffffff16815260200190815260200160002060010181905550600160068890806001815401808255809150509060018203906000526020600020016000909192909190916101000a81548173ffffffffffffffffffffffffffffffffffffffff021916908373ffffffffffffffffffffffffffffffffffffffff16021790555003600560008973ffffffffffffffffffffffffffffffffffffffff1673ffffffffffffffffffffffffffffffffffffffff168152602001908152602001600020600201819055506000600560008973ffffffffffffffffffffffffffffffffffffffff1673ffffffffffffffffffffffffffffffffffffffff16815260200190815260200160002060000160006101000a81548160ff0219169083151502179055506001600560008973ffffffffffffffffffffffffffffffffffffffff1673ffffffffffffffffffffffffffffffffffffffff16815260200190815260200160002060000160016101000a81548160ff0219169083151502179055506000600560008973ffffffffffffffffffffffffffffffffffffffff1673ffffffffffffffffffffffffffffffffffffffff16815260200190815260200160002060000160026101000a81548160ff021916908315150217905550600560008873ffffffffffffffffffffffffffffffffffffffff1673ffffffffffffffffffffffffffffffffffffffff16815260200190815260200160002060050160009054906101000a900473ffffffffffffffffffffffffffffffffffffffff1673ffffffffffffffffffffffffffffffffffffffff16600560008973ffffffffffffffffffffffffffffffffffffffff1673ffffffffffffffffffffffffffffffffffffffff16815260200190815260200160002060040160009054906101000a900473ffffffffffffffffffffffffffffffffffffffff1673ffffffffffffffffffffffffffffffffffffffff163373ffffffffffffffffffffffffffffffffffffffff167fff5dab09ed325555954441754767be1baabebf5e609152bd46e0f3fa2c4ba04f600560008c73ffffffffffffffffffffffffffffffffffffffff1673ffffffffffffffffffffffffffffffffffffffff16815260200190815260200160002060060154600560008d73ffffffffffffffffffffffffffffffffffffffff1673ffffffffffffffffffffffffffffffffffffffff168152602001908152602001600020600701600560008e73ffffffffffffffffffffffffffffffffffffffff1673ffffffffffffffffffffffffffffffffffffffff1681526020019081526020016000206008016040518084815260200180602001806020018381038352858181546001816001161561010002031660029004815260200191508054600181600116156101000203166002900480156149c15780601f10614996576101008083540402835291602001916149c1565b820191906000526020600020905b8154815290600101906020018083116149a457829003601f168201915b5050838103825284818154600181600116156101000203166002900481526020019150805460018160011615610100020316600290048015614a445780601f10614a1957610100808354040283529160200191614a44565b820191906000526020600020905b815481529060010190602001808311614a2757829003601f168201915b50509550505050505060405180910390a4614ab6565b6001600560008973ffffffffffffffffffffffffffffffffffffffff1673ffffffffffffffffffffffffffffffffffffffff168152602001908152602001600020600f0160006101000a81548160ff0219169083151502179055505b5b600560008873ffffffffffffffffffffffffffffffffffffffff1673ffffffffffffffffffffffffffffffffffffffff168152602001908152602001600020600c015493505050509392505050565b6000809054906101000a900473ffffffffffffffffffffffffffffffffffffffff1681565b60006060600080600080600560008873ffffffffffffffffffffffffffffffffffffffff1673ffffffffffffffffffffffffffffffffffffffff16815260200190815260200160002060000160009054906101000a900460ff16600560008973ffffffffffffffffffffffffffffffffffffffff1673ffffffffffffffffffffffffffffffffffffffff168152602001908152602001600020600801600560008a73ffffffffffffffffffffffffffffffffffffffff1673ffffffffffffffffffffffffffffffffffffffff16815260200190815260200160002060090180549050600560008b73ffffffffffffffffffffffffffffffffffffffff1673ffffffffffffffffffffffffffffffffffffffff168152602001908152602001600020600d0154600560008c73ffffffffffffffffffffffffffffffffffffffff1673ffffffffffffffffffffffffffffffffffffffff168152602001908152602001600020600e0154600560008d73ffffffffffffffffffffffffffffffffffffffff1673ffffffffffffffffffffffffffffffffffffffff168152602001908152602001600020600f0160009054906101000a900460ff16848054600181600116156101000203166002900480601f016020809104026020016040519081016040528092919081815260200182805460018160011615610100020316600290048015614d785780601f10614d4d57610100808354040283529160200191614d78565b820191906000526020600020905b815481529060010190602001808311614d5b57829003601f168201915b5050505050945095509550955095509550955091939550919395565b600681815481101515614da357fe5b906000526020600020016000915054906101000a900473ffffffffffffffffffffffffffffffffffffffff1681565b6000614ddc615f25565b600360003373ffffffffffffffffffffffffffffffffffffffff1673ffffffffffffffffffffffffffffffffffffffff16815260200190815260200160002060000160159054906101000a900460ff161515614e3757600080fd5b600360003373ffffffffffffffffffffffffffffffffffffffff1673ffffffffffffffffffffffffffffffffffffffff16815260200190815260200160002060000160149054906101000a900460ff161515614e9257600080fd5b60008773ffffffffffffffffffffffffffffffffffffffff1614151515614eb857600080fd5b600560008873ffffffffffffffffffffffffffffffffffffffff1673ffffffffffffffffffffffffffffffffffffffff16815260200190815260200160002060000160009054906101000a900460ff16151515614f1457600080fd5b600560008873ffffffffffffffffffffffffffffffffffffffff1673ffffffffffffffffffffffffffffffffffffffff16815260200190815260200160002060000160019054906101000a900460ff16151515614f7057600080fd5b600560008873ffffffffffffffffffffffffffffffffffffffff1673ffffffffffffffffffffffffffffffffffffffff16815260200190815260200160002060000160029054906101000a900460ff16151515614fcc57600080fd5b600160068890806001815401808255809150509060018203906000526020600020016000909192909190916101000a81548173ffffffffffffffffffffffffffffffffffffffff021916908373ffffffffffffffffffffffffffffffffffffffff16021790555003600560008973ffffffffffffffffffffffffffffffffffffffff1673ffffffffffffffffffffffffffffffffffffffff168152602001908152602001600020600201819055506000600560008973ffffffffffffffffffffffffffffffffffffffff1673ffffffffffffffffffffffffffffffffffffffff16815260200190815260200160002060000160006101000a81548160ff0219169083151502179055506001600560008973ffffffffffffffffffffffffffffffffffffffff1673ffffffffffffffffffffffffffffffffffffffff16815260200190815260200160002060000160016101000a81548160ff0219169083151502179055506000600560008973ffffffffffffffffffffffffffffffffffffffff1673ffffffffffffffffffffffffffffffffffffffff16815260200190815260200160002060000160026101000a81548160ff02191690831515021790555033600560008973ffffffffffffffffffffffffffffffffffffffff1673ffffffffffffffffffffffffffffffffffffffff16815260200190815260200160002060040160006101000a81548173ffffffffffffffffffffffffffffffffffffffff021916908373ffffffffffffffffffffffffffffffffffffffff16021790555086600560008973ffffffffffffffffffffffffffffffffffffffff1673ffffffffffffffffffffffffffffffffffffffff16815260200190815260200160002060050160006101000a81548173ffffffffffffffffffffffffffffffffffffffff021916908373ffffffffffffffffffffffffffffffffffffffff16021790555085600560008973ffffffffffffffffffffffffffffffffffffffff1673ffffffffffffffffffffffffffffffffffffffff1681526020019081526020016000206006018190555084600560008973ffffffffffffffffffffffffffffffffffffffff1673ffffffffffffffffffffffffffffffffffffffff168152602001908152602001600020600701908051906020019061532a929190615ea5565b5083600560008973ffffffffffffffffffffffffffffffffffffffff1673ffffffffffffffffffffffffffffffffffffffff1681526020019081526020016000206008019080519060200190615381929190615ea5565b506001600560008973ffffffffffffffffffffffffffffffffffffffff1673ffffffffffffffffffffffffffffffffffffffff168152602001908152602001600020600c01819055506001600560008973ffffffffffffffffffffffffffffffffffffffff1673ffffffffffffffffffffffffffffffffffffffff168152602001908152602001600020600d018190555042600560008973ffffffffffffffffffffffffffffffffffffffff1673ffffffffffffffffffffffffffffffffffffffff168152602001908152602001600020600e018190555042600560008973ffffffffffffffffffffffffffffffffffffffff1673ffffffffffffffffffffffffffffffffffffffff168152602001908152602001600020601001819055506000600560008973ffffffffffffffffffffffffffffffffffffffff1673ffffffffffffffffffffffffffffffffffffffff168152602001908152602001600020600f0160006101000a81548160ff0219169083151502179055506001600560008973ffffffffffffffffffffffffffffffffffffffff1673ffffffffffffffffffffffffffffffffffffffff168152602001908152602001600020600a0160003373ffffffffffffffffffffffffffffffffffffffff1673ffffffffffffffffffffffffffffffffffffffff16815260200190815260200160002060006101000a81548160ff021916908315150217905550600560008873ffffffffffffffffffffffffffffffffffffffff1673ffffffffffffffffffffffffffffffffffffffff1681526020019081526020016000206009013390806001815401808255809150509060018203906000526020600020016000909192909190916101000a81548173ffffffffffffffffffffffffffffffffffffffff021916908373ffffffffffffffffffffffffffffffffffffffff16021790555050600360003373ffffffffffffffffffffffffffffffffffffffff1673ffffffffffffffffffffffffffffffffffffffff1681526020019081526020016000206004018790806001815401808255809150509060018203906000526020600020016000909192909190916101000a81548173ffffffffffffffffffffffffffffffffffffffff021916908373ffffffffffffffffffffffffffffffffffffffff1602179055505086816000019073ffffffffffffffffffffffffffffffffffffffff16908173ffffffffffffffffffffffffffffffffffffffff1681525050600181602001901515908115158152505033816040019073ffffffffffffffffffffffffffffffffffffffff16908173ffffffffffffffffffffffffffffffffffffffff168152505082816060018190525080600560008973ffffffffffffffffffffffffffffffffffffffff1673ffffffffffffffffffffffffffffffffffffffff168152602001908152602001600020600b0160003373ffffffffffffffffffffffffffffffffffffffff1673ffffffffffffffffffffffffffffffffffffffff16815260200190815260200160002060008201518160000160006101000a81548173ffffffffffffffffffffffffffffffffffffffff021916908373ffffffffffffffffffffffffffffffffffffffff16021790555060208201518160000160146101000a81548160ff02191690831515021790555060408201518160010160006101000a81548173ffffffffffffffffffffffffffffffffffffffff021916908373ffffffffffffffffffffffffffffffffffffffff16021790555060608201518160020190805190602001906158b3929190615f7c565b50905050858773ffffffffffffffffffffffffffffffffffffffff163373ffffffffffffffffffffffffffffffffffffffff167f89532ebc3f69e3d68b3f4f0f5cdd77eb74c3e2e2fa823104482cead0f4bfe0c98888604051808060200180602001838103835285818151815260200191508051906020019080838360005b8381101561594d578082015181840152602081019050615932565b50505050905090810190601f16801561597a5780820380516001836020036101000a031916815260200191505b50838103825284818151815260200191508051906020019080838360005b838110156159b3578082015181840152602081019050615998565b50505050905090810190601f1680156159e05780820380516001836020036101000a031916815260200191505b5094505050505060405180910390a45095945050505050565b60025481565b6000809054906101000a900473ffffffffffffffffffffffffffffffffffffffff1673ffffffffffffffffffffffffffffffffffffffff163373ffffffffffffffffffffffffffffffffffffffff16141515615a5a57600080fd5b600360008273ffffffffffffffffffffffffffffffffffffffff1673ffffffffffffffffffffffffffffffffffffffff16815260200190815260200160002060000160159054906101000a900460ff161515615ab557600080fd5b6000600360008373ffffffffffffffffffffffffffffffffffffffff1673ffffffffffffffffffffffffffffffffffffffff16815260200190815260200160002060000160146101000a81548160ff021916908315150217905550600015158173ffffffffffffffffffffffffffffffffffffffff167f27b022af4a8347100c7a041ce5ccf8e14d644ff05de696315196faae8cd50c9b60405160405180910390a350565b6000600560008473ffffffffffffffffffffffffffffffffffffffff1673ffffffffffffffffffffffffffffffffffffffff16815260200190815260200160002060090182815481101515615bab57fe5b9060005260206000200160009054906101000a900473ffffffffffffffffffffffffffffffffffffffff16905092915050565b600881815481101515615bed57fe5b906000526020600020016000915054906101000a900473ffffffffffffffffffffffffffffffffffffffff1681565b6000600360008473ffffffffffffffffffffffffffffffffffffffff1673ffffffffffffffffffffffffffffffffffffffff16815260200190815260200160002060050182815481101515615c6d57fe5b9060005260206000200160009054906101000a900473ffffffffffffffffffffffffffffffffffffffff16905092915050565b6000600360008473ffffffffffffffffffffffffffffffffffffffff1673ffffffffffffffffffffffffffffffffffffffff16815260200190815260200160002060040182815481101515615cf157fe5b9060005260206000200160009054906101000a900473ffffffffffffffffffffffffffffffffffffffff16905092915050565b6000809054906101000a900473ffffffffffffffffffffffffffffffffffffffff1673ffffffffffffffffffffffffffffffffffffffff163373ffffffffffffffffffffffffffffffffffffffff16141515615d7f57600080fd5b600073ffffffffffffffffffffffffffffffffffffffff168173ffffffffffffffffffffffffffffffffffffffff1614151515615dbb57600080fd5b8073ffffffffffffffffffffffffffffffffffffffff166000809054906101000a900473ffffffffffffffffffffffffffffffffffffffff1673ffffffffffffffffffffffffffffffffffffffff167f8be0079c531659141344cd1fd0a4f28419497f9722a3daafe3b4186f6b6457e060405160405180910390a3806000806101000a81548173ffffffffffffffffffffffffffffffffffffffff021916908373ffffffffffffffffffffffffffffffffffffffff16021790555050565b815481835581811115615ea057818360005260206000209182019101615e9f9190615ffc565b5b505050565b828054600181600116156101000203166002900490600052602060002090601f016020900481019282601f10615ee657805160ff1916838001178555615f14565b82800160010185558215615f14579182015b82811115615f13578251825591602001919060010190615ef8565b5b509050615f219190615ffc565b5090565b608060405190810160405280600073ffffffffffffffffffffffffffffffffffffffff168152602001600015158152602001600073ffffffffffffffffffffffffffffffffffffffff168152602001606081525090565b828054600181600116156101000203166002900490600052602060002090601f016020900481019282601f10615fbd57805160ff1916838001178555615feb565b82800160010185558215615feb579182015b82811115615fea578251825591602001919060010190615fcf565b5b509050615ff89190615ffc565b5090565b61601e91905b8082111561601a576000816000905550600101616002565b5090565b905600a165627a7a72305820d70be752c0c9fadb0099a765867a9a21a47ad249aa5126408e2515ca0b137ec50029",
  "source": "pragma solidity ^0.4.21;\r\n\r\n\r\ncontract Ownable {\r\n    address public owner;\r\n\r\n\r\n    event OwnershipTransferred(address indexed previousOwner, address indexed newOwner);\r\n\r\n\r\n    /**\r\n     * @dev The Ownable constructor sets the original `owner` of the contract to the sender\r\n     * account.\r\n     */\r\n    function Ownable() {\r\n        owner = msg.sender;\r\n    }\r\n\r\n\r\n    /**\r\n     * @dev Throws if called by any account other than the owner.\r\n     */\r\n    modifier onlyOwner() {\r\n        require(msg.sender == owner);\r\n        _;\r\n    }\r\n\r\n\r\n    /**\r\n     * @dev Allows the current owner to transfer control of the contract to a newOwner.\r\n     * @param newOwner The address to transfer ownership to.\r\n     */\r\n    function transferOwnership(address newOwner) onlyOwner public {\r\n        require(newOwner != address(0));\r\n        OwnershipTransferred(owner, newOwner);\r\n        owner = newOwner;\r\n    }\r\n\r\n}\r\n\r\n\r\n/**\r\n * @title SafeMath\r\n * @dev Math operations with safety checks that throw on error\r\n */\r\nlibrary SafeMath {\r\n  function mul(uint256 a, uint256 b) internal constant returns (uint256) {\r\n    uint256 c = a * b;\r\n    assert(a == 0 || c / a == b);\r\n    return c;\r\n  }\r\n\r\n  function div(uint256 a, uint256 b) internal constant returns (uint256) {\r\n    // assert(b > 0); // Solidity automatically throws when dividing by 0\r\n    uint256 c = a / b;\r\n    // assert(a == b * c + a % b); // There is no case in which this doesn't hold\r\n    return c;\r\n  }\r\n\r\n  function sub(uint256 a, uint256 b) internal constant returns (uint256) {\r\n    assert(b <= a);\r\n    return a - b;\r\n  }\r\n\r\n  function add(uint256 a, uint256 b) internal constant returns (uint256) {\r\n    uint256 c = a + b;\r\n    assert(c >= a);\r\n    return c;\r\n  }\r\n}\r\n\r\n\r\n/**\r\n * @title Improved congress contract by Ethereum Foundation\r\n * @dev https://www.ethereum.org/dao#the-blockchain-congress\r\n */\r\ncontract DACOMain is Ownable {\r\n    \r\n    using SafeMath for uint256;\r\n    \r\n    /**\r\n     * @dev Minimal quorum value\r\n     */\r\n    uint256 public minimumQuorum;\r\n\r\n    /**\r\n     * @dev Majority margin is used in voting procedure\r\n     */\r\n    uint256 public majorityMargin;\r\n\r\n\r\n\r\n    // ---====== MEMBERS ======---\r\n    /**\r\n     * @dev Get delegate object by account address\r\n     */\r\n    mapping(address => Member) members;\r\n\r\n    /**\r\n     * @dev Congress members addresses list\r\n     */\r\n    address[] public membersAddr;\r\n\r\n    /**\r\n     * @dev Count of members in archive\r\n     */\r\n    function numMembers() public view returns (uint256)\r\n    { return membersAddr.length; }\r\n\r\n\r\n\r\n    // ---====== CAMPAIGNS ======---\r\n    /**\r\n     * @dev Get campaign object by account address\r\n     */\r\n    mapping(address => Campaign) campaigns;\r\n\r\n    /**\r\n     * @dev Campaigns addresses list\r\n     */\r\n    address[] public campaignsAddr;\r\n\r\n    /**\r\n     * @dev Count of campaigns in list\r\n     */\r\n    function numCampaigns() public view returns (uint256)\r\n    { return campaignsAddr.length; }\r\n\r\n\r\n\r\n    // ---====== PROPOSALS ======---\r\n    /**\r\n     * @dev List of all proposals addresses\r\n     */\r\n    address[] public proposalsAddr;\r\n\r\n    /**\r\n     * @dev Count of proposals in list\r\n     */\r\n    function numProposals() public view returns (uint256)\r\n    { return proposalsAddr.length; }\r\n\r\n\r\n\r\n    // ---====== FINISHED CAMPAIGNS ======---\r\n    /**\r\n     * @dev Campaigns list\r\n     */\r\n    address[] public finishedCampaignsAddr;\r\n\r\n    /**\r\n     * @dev Count of campaigns in list\r\n     */\r\n    function numFinishedCampaigns() public view returns (uint256)\r\n    { return finishedCampaignsAddr.length; }\r\n\r\n\r\n\r\n    /** msg.sender, wallet, amount, description, link\r\n     * @dev On proposal added\r\n     * @param sender Sender address\r\n     * @param wallet Wallet address\r\n     * @param amount Amount of wei\r\n     * @param description Description\r\n     * @param link Link to site\r\n     */\r\n    event ProposalAdded(\r\n        address indexed sender,\r\n        address indexed wallet,\r\n        uint256 indexed amount,\r\n        string description,\r\n        string link\r\n    );\r\n\r\n    /**\r\n     * @dev On campaign added\r\n     * @param sender Sender address\r\n     * @param wallet Wallet address\r\n     * @param amount Amount of wei\r\n     * @param description Description\r\n     * @param link Link to site\r\n     */\r\n    event CampaignAdded(\r\n        address indexed sender,\r\n        address indexed wallet,\r\n        uint256 indexed amount,\r\n        string description,\r\n        string link\r\n    );\r\n\r\n    /**\r\n     * @dev On campaign added\r\n     * @param sender Sender address\r\n     * @param owner Owner address\r\n     * @param wallet Wallet address\r\n     * @param amount Amount of wei\r\n     * @param description Description\r\n     * @param link Link to site\r\n     */\r\n    event ProposalPassed(\r\n        address indexed sender,\r\n        address indexed owner,\r\n        address indexed wallet,\r\n        uint256 amount,\r\n        string description,\r\n        string link\r\n    );\r\n\r\n    /**\r\n     * @dev On vote by member accepted\r\n     * @param sender Proposal sender\r\n     * @param wallet Proposal wallet\r\n     * @param supportsProposal Support proposal\r\n     * @param comment Comment\r\n     */\r\n    event Voted(\r\n        address indexed sender,\r\n        address indexed wallet,\r\n        bool indexed supportsProposal,\r\n        string comment\r\n    );\r\n\r\n    /**\r\n     * @dev On vote by member accepted\r\n     * @param sender Proposal sender\r\n     * @param wallet Proposal wallet\r\n     * @param supportsProposal Support proposal\r\n     * @param comment Comment\r\n     */\r\n//    event Verified(\r\n//        address indexed sender,\r\n//        address indexed wallet,\r\n//        bool indexed supportsProposal,\r\n//        string comment\r\n//    );\r\n\r\n    /**\r\n     * @dev On vote by member accepted\r\n     * @param sender Proposal sender\r\n     * @param wallet Proposal wallet\r\n     * @param raisedAmount Raised amount\r\n     * @param report Report\r\n     */\r\n    event FinishCampaign(\r\n        address indexed sender,\r\n        address indexed wallet,\r\n        uint256 indexed raisedAmount,\r\n        string report\r\n    );\r\n\r\n    /**\r\n     * @dev On changed membership\r\n     * @param member Account address\r\n     * @param isMember Is account member now\r\n     */\r\n    event MembershipChanged(\r\n        address indexed member,\r\n        bool    indexed isMember\r\n    );\r\n\r\n    /**\r\n     * @dev On voting rules changed\r\n     * @param minimumQuorum New minimal count of votes\r\n     * @param majorityMargin New majority margin value\r\n     */\r\n    event ChangeOfRules(\r\n        uint256 indexed minimumQuorum,\r\n        uint256  indexed majorityMargin\r\n    );\r\n\r\n    struct Campaign {\r\n        bool isProposal;\r\n        bool isCampaign;\r\n        bool isFinishedCampaign;\r\n\r\n        uint indexProposal;\r\n        uint indexCampaign;\r\n        uint indexFinishedCampaign;\r\n\r\n        address owner;\r\n        address wallet;\r\n        uint256 amount;\r\n        string  description;\r\n        string  link;\r\n\r\n        address[] votesAddr;\r\n        mapping(address => bool) voted;\r\n        mapping(address => Vote) voteData;\r\n\r\n        //address[] verifiedAddr;\r\n        //mapping(address => bool) verified;\r\n        //mapping(address => Vote) verifiedData;\r\n\r\n        uint256 numberOfVotes;\r\n        uint256 currentResult;\r\n\r\n        uint256 proposalDate;\r\n        bool proposalRejected;\r\n\r\n        uint256 campaignDate;\r\n\r\n        uint256 finishDate;\r\n        uint256 raisedAmount;\r\n        string  report;\r\n    }\r\n\r\n    struct Vote {\r\n        address wallet;\r\n        bool supportsProposal;\r\n        address sender;\r\n        string comment;\r\n    }\r\n\r\n    struct Member {\r\n        address member;\r\n        bool active;\r\n        bool isMember;\r\n        string  name;\r\n        string  link;\r\n        uint256 memberSince;\r\n        address[] campaignsAddr;\r\n        address[] finishedCampaignsAddr;\r\n        uint index;\r\n    }\r\n\r\n    /**\r\n     * @dev Modifier that allows only shareholders to vote and create new proposals\r\n     */\r\n    modifier onlyMembers {\r\n        require (members[msg.sender].isMember);\r\n        require (members[msg.sender].active);\r\n        _;\r\n    }\r\n\r\n    /**\r\n     * @dev First time setup\r\n     */\r\n    function DACOMain() public {\r\n        changeVotingRules(1, 1);\r\n    }\r\n\r\n    /**\r\n     * @dev Get member\r\n     * @param _address Member account address\r\n     */\r\n    function getMember(address _address) public view returns (\r\n        bool active,\r\n        bool isMember,\r\n        string name,\r\n        string link,\r\n        uint256 memberSince,\r\n        uint256 countCampaigns,\r\n        uint256 countFinishedCampaigns\r\n    ) {\r\n        return (\r\n            members[_address].active,\r\n            members[_address].isMember,\r\n            members[_address].name,\r\n            members[_address].link,\r\n            members[_address].memberSince,\r\n            members[_address].campaignsAddr.length,\r\n            members[_address].finishedCampaignsAddr.length\r\n        );\r\n    }\r\n\r\n    /**\r\n     * @dev Get campaign common information\r\n     * @param _address Campaign wallet address\r\n     */\r\n    function getCampaignCommonInfo(address _address) public view returns (\r\n        bool isProposal,\r\n        bool isCampaign,\r\n        bool isFinishedCampaign,\r\n        address owner,\r\n        address wallet,\r\n        uint256 amount,\r\n        string description\r\n    ) {\r\n        return (\r\n            campaigns[_address].isProposal,\r\n            campaigns[_address].isCampaign,\r\n            campaigns[_address].isFinishedCampaign,\r\n            campaigns[_address].owner,\r\n            campaigns[_address].wallet,\r\n            campaigns[_address].amount,\r\n            campaigns[_address].description\r\n        );\r\n    }\r\n\r\n    /**\r\n     * @dev Get info for proposals\r\n     * @param _address Campaign wallet address\r\n     */\r\n    function getCampaignProposalInfo(address _address) public view returns (\r\n        bool isProposal,\r\n        string link,\r\n        uint256 countVotes,\r\n        //uint256 countVerified,\r\n        uint256 currentResult,\r\n        uint256 proposalDate,\r\n        bool proposalRejected\r\n    ) {\r\n        return (\r\n            campaigns[_address].isProposal,\r\n            campaigns[_address].link,\r\n            campaigns[_address].votesAddr.length,\r\n            //campaigns[_address].verifiedAddr.length,\r\n            campaigns[_address].currentResult,\r\n            campaigns[_address].proposalDate,\r\n            campaigns[_address].proposalRejected\r\n        );\r\n    }\r\n\r\n    /**\r\n     * @dev Get info for active campaigns\r\n     * @param _address Campaign wallet address\r\n     */\r\n    function getCampaignActiveInfo(address _address) public view returns (\r\n        bool isProposal,\r\n        string link,\r\n        uint256 countVotes,\r\n        //uint256 countVerified,\r\n        uint256 currentResult,\r\n        uint256 proposalDate,\r\n        uint256 campaignDate\r\n    ) {\r\n        return (\r\n            campaigns[_address].isProposal,\r\n            campaigns[_address].link,\r\n            campaigns[_address].votesAddr.length,\r\n            //campaigns[_address].verifiedAddr.length,\r\n            campaigns[_address].currentResult,\r\n            campaigns[_address].proposalDate,\r\n            campaigns[_address].campaignDate\r\n        );\r\n    }\r\n\r\n    /**\r\n     * @dev Get info for finished campaigns\r\n     * @param _address Campaign wallet address\r\n     */\r\n    function getCampaignFinishedInfo(address _address) public view returns (\r\n        string link,\r\n        uint256 countVotes,\r\n        //uint256 countVerified,\r\n        uint256 campaignDate,\r\n        uint256 finishDate,\r\n        uint256 raisedAmount,\r\n        string report\r\n    ) {\r\n        return (\r\n            campaigns[_address].link,\r\n            campaigns[_address].votesAddr.length,\r\n            //campaigns[_address].verifiedAddr.length,\r\n            campaigns[_address].campaignDate,\r\n            campaigns[_address].finishDate,\r\n            campaigns[_address].raisedAmount,\r\n            campaigns[_address].report\r\n        );\r\n    }\r\n\r\n    /**\r\n     * @dev Get member who vote for campaign\r\n     * @param _address Campaign wallet address\r\n     * @param _index Member index\r\n     */\r\n    function getCampaignVoteMemberAddress(address _address, uint256 _index) public view returns (\r\n        address\r\n    ) {\r\n        return (\r\n            campaigns[_address].votesAddr[_index]\r\n        );\r\n    }\r\n\r\n    /**\r\n     * @dev Get member who verified campaign\r\n     * @param _address Campaign wallet address\r\n     * @param _index Member index\r\n     */\r\n//    function getCampaignVerifiedMemberAddress(address _address, uint256 _index) public view returns (\r\n//        address\r\n//    ) {\r\n//        return (\r\n//            campaigns[_address].verifiedAddr[_index]\r\n//        );\r\n//    }\r\n\r\n    /**\r\n     * @dev Get campaign\r\n     * @param _addressCampaign Campaign wallet address\r\n     * @param _addressMember Member address\r\n     */\r\n    function getCampaignVoteObject(address _addressCampaign, address _addressMember) public view returns (\r\n        address wallet,\r\n        bool supportsProposal,\r\n        address sender,\r\n        string comment\r\n    ) {\r\n        return (\r\n            campaigns[_addressCampaign].voteData[_addressMember].wallet,\r\n            campaigns[_addressCampaign].voteData[_addressMember].supportsProposal,\r\n            campaigns[_addressCampaign].voteData[_addressMember].sender,\r\n            campaigns[_addressCampaign].voteData[_addressMember].comment\r\n        );\r\n    }\r\n\r\n    /**\r\n     * @dev Get campaign\r\n     * @param _addressCampaign Campaign wallet address\r\n     * @param _addressMember Member address\r\n     */\r\n//    function getCampaignVerifyObject(address _addressCampaign, address _addressMember) public view returns (\r\n//        address,\r\n//        bool,\r\n//        address,\r\n//        string\r\n//    ) {\r\n//        return (\r\n//            campaigns[_addressCampaign].verifiedData[_addressMember].wallet,\r\n//            campaigns[_addressCampaign].verifiedData[_addressMember].supportsProposal,\r\n//            campaigns[_addressCampaign].verifiedData[_addressMember].sender,\r\n//            campaigns[_addressCampaign].verifiedData[_addressMember].comment\r\n//        );\r\n//    }\r\n\r\n    /**\r\n     * @dev Get member campaign\r\n     * @param _memberAddress Campaign wallet address\r\n     * @param _index Campaign index\r\n     */\r\n    function getMemberCampaignAddress(address _memberAddress, uint256 _index) public view returns (\r\n        address\r\n    ) {\r\n        return (\r\n            members[_memberAddress].campaignsAddr[_index]\r\n        );\r\n    }\r\n\r\n    /**\r\n     * @dev Get member campaign\r\n     * @param _memberAddress Campaign wallet address\r\n     * @param _index Campaign index\r\n     */\r\n    function getMemberFinishedCampaignAddress(address _memberAddress, uint256 _index) public view returns (\r\n        address\r\n    ) {\r\n        return (\r\n            members[_memberAddress].finishedCampaignsAddr[_index]\r\n        );\r\n    }\r\n\r\n    /**\r\n     * @dev Add new congress member\r\n     * @param _targetMember Member account address\r\n     * @param _memberName Member full name\r\n     * @param _memberLink Member site\r\n     */\r\n    function addMember(address _targetMember, string _memberName, string _memberLink) public onlyOwner {\r\n        require(_targetMember != 0x0);\r\n        require(!members[_targetMember].isMember);\r\n\r\n        members[_targetMember].index = membersAddr.push(_targetMember) - 1;\r\n        members[_targetMember].active = true;\r\n        members[_targetMember].isMember = true;\r\n\r\n        members[_targetMember].member = _targetMember;\r\n        members[_targetMember].name = _memberName;\r\n        members[_targetMember].link = _memberLink;\r\n        members[_targetMember].memberSince = now;\r\n\r\n        MembershipChanged(_targetMember, true);\r\n    }\r\n\r\n    /**\r\n     * @dev Remove congress member\r\n     * @param _targetMember Member account address\r\n     */\r\n    function removeMember(address _targetMember) public onlyOwner {\r\n        require(members[_targetMember].isMember);\r\n\r\n        members[_targetMember].active = false;\r\n        members[_targetMember].isMember = false;\r\n\r\n        uint rowToDelete = members[_targetMember].index;\r\n        address keyToMove   = membersAddr[membersAddr.length-1];\r\n        membersAddr[rowToDelete] = keyToMove;\r\n        members[keyToMove].index = rowToDelete;\r\n        membersAddr.length--;\r\n\r\n        MembershipChanged(_targetMember, false);\r\n    }\r\n\r\n    /**\r\n     * @dev Activate member\r\n     * @param _targetMember Member account address\r\n     */\r\n    function activateMember(address _targetMember) public onlyOwner {\r\n        require(members[_targetMember].isMember);\r\n        members[_targetMember].active = true;\r\n\r\n        MembershipChanged(_targetMember, true);\r\n    }\r\n\r\n    /**\r\n     * @dev Activate member\r\n     * @param _targetMember Member account address\r\n     */\r\n    function deactivateMember(address _targetMember) public onlyOwner {\r\n        require(members[_targetMember].isMember);\r\n        members[_targetMember].active = false;\r\n\r\n        MembershipChanged(_targetMember, false);\r\n    }\r\n\r\n    /**\r\n     * @dev Change rules of voting\r\n     * @param _minimumQuorumForProposals Minimal count of votes\r\n     * @param _marginOfVotesForMajority Majority margin value\r\n     */\r\n    function changeVotingRules(\r\n        uint256 _minimumQuorumForProposals,\r\n        uint256 _marginOfVotesForMajority\r\n    )\r\n    public onlyOwner\r\n    {\r\n        minimumQuorum           = _minimumQuorumForProposals;\r\n        majorityMargin          = _marginOfVotesForMajority;\r\n\r\n        ChangeOfRules(minimumQuorum, majorityMargin);\r\n    }\r\n\r\n    /**\r\n     * @dev Create a new proposal\r\n     * @param _wallet Beneficiary account address\r\n     * @param _amount Amount value in wei\r\n     * @param _description Description string\r\n     * @param _link Link\r\n     */\r\n    function newProposal(\r\n        address _wallet,\r\n        uint256 _amount,\r\n        string  _description,\r\n        string  _link\r\n    )\r\n    public\r\n    returns (uint256 id)\r\n    {\r\n        require(_wallet != 0x0);\r\n        require(!campaigns[_wallet].isProposal);\r\n        require(!campaigns[_wallet].isCampaign);\r\n        require(!campaigns[_wallet].isFinishedCampaign);\r\n\r\n        campaigns[_wallet].indexProposal = proposalsAddr.push(_wallet) - 1;\r\n        campaigns[_wallet].isProposal = true;\r\n        campaigns[_wallet].isCampaign = false;\r\n        campaigns[_wallet].isFinishedCampaign = false;\r\n\r\n        campaigns[_wallet].owner = msg.sender;\r\n        campaigns[_wallet].wallet = _wallet;\r\n        campaigns[_wallet].amount = _amount;\r\n        campaigns[_wallet].description = _description;\r\n        campaigns[_wallet].link = _link;\r\n        campaigns[_wallet].numberOfVotes = 0;\r\n        campaigns[_wallet].currentResult = 0;\r\n        campaigns[_wallet].proposalDate = now;\r\n        campaigns[_wallet].proposalRejected = false;\r\n\r\n        ProposalAdded(msg.sender, _wallet, _amount, _description, _link);\r\n    }\r\n\r\n    /**\r\n     * @dev Create a new campaign\r\n     * @param _wallet Beneficiary account address\r\n     * @param _amount Amount value in wei\r\n     * @param _description Description string\r\n     * @param _link Link\r\n     * @param _comment Comment\r\n     */\r\n    function newCampaign(\r\n        address _wallet,\r\n        uint256 _amount,\r\n        string  _description,\r\n        string  _link,\r\n        string  _comment\r\n    )\r\n    public\r\n    onlyMembers\r\n    returns (uint256 id)\r\n    {\r\n        require(_wallet != 0x0);\r\n        require(!campaigns[_wallet].isProposal);\r\n        require(!campaigns[_wallet].isCampaign);\r\n        require(!campaigns[_wallet].isFinishedCampaign);\r\n\r\n        campaigns[_wallet].indexCampaign = campaignsAddr.push(_wallet) - 1;\r\n        campaigns[_wallet].isProposal = false;\r\n        campaigns[_wallet].isCampaign = true;\r\n        campaigns[_wallet].isFinishedCampaign = false;\r\n\r\n        campaigns[_wallet].owner = msg.sender;\r\n        campaigns[_wallet].wallet = _wallet;\r\n        campaigns[_wallet].amount = _amount;\r\n        campaigns[_wallet].description = _description;\r\n        campaigns[_wallet].link = _link;\r\n        campaigns[_wallet].numberOfVotes = 1;\r\n        campaigns[_wallet].currentResult = 1;\r\n        campaigns[_wallet].proposalDate = now;\r\n        campaigns[_wallet].campaignDate = now;\r\n        campaigns[_wallet].proposalRejected = false;\r\n        campaigns[_wallet].voted[msg.sender] = true;\r\n        campaigns[_wallet].votesAddr.push(msg.sender);\r\n\r\n        members[msg.sender].campaignsAddr.push(_wallet);\r\n\r\n        Vote memory v;\r\n        v.wallet = _wallet;\r\n        v.supportsProposal = true;\r\n        v.sender = msg.sender;\r\n        v.comment = _comment;\r\n\r\n        campaigns[_wallet].voteData[msg.sender] = v;\r\n\r\n        CampaignAdded(msg.sender, _wallet, _amount, _description, _link);\r\n    }\r\n\r\n    /**\r\n     * @dev Proposal voting\r\n     * @param _wallet Beneficiary account address\r\n     * @param _supportsProposal Is member support proposal\r\n     * @param _comment Comment\r\n     */\r\n    function vote(\r\n        address _wallet,\r\n        bool _supportsProposal,\r\n        string _comment\r\n    )\r\n    public\r\n    onlyMembers\r\n    returns (uint256 id)\r\n    {\r\n        require(_wallet != 0x0);\r\n        require(campaigns[_wallet].isProposal);\r\n        require(!campaigns[_wallet].isCampaign);\r\n        require(!campaigns[_wallet].isFinishedCampaign);\r\n\r\n        require(!campaigns[_wallet].voted[msg.sender]);\r\n        require(!campaigns[_wallet].proposalRejected);\r\n\r\n        campaigns[_wallet].voted[msg.sender] = true; // Set this voter as having voted\r\n        campaigns[_wallet].votesAddr.push(msg.sender);\r\n\r\n\r\n        Vote memory v;\r\n        v.wallet = _wallet;\r\n        v.supportsProposal = _supportsProposal;\r\n        v.sender = msg.sender;\r\n        v.comment = _comment;\r\n\r\n        campaigns[_wallet].voteData[msg.sender] = v;\r\n\r\n//        if (!campaigns[_wallet].verified[msg.sender]) {\r\n//            campaigns[_wallet].verifiedData[msg.sender] = v;\r\n//            campaigns[_wallet].verified[msg.sender] = true;\r\n//            campaigns[_wallet].verifiedAddr.push(msg.sender);\r\n//        }\r\n\r\n        campaigns[_wallet].numberOfVotes++; // Increase the number of votes\r\n        if (_supportsProposal) { // If they support the proposal\r\n            campaigns[_wallet].currentResult++; // Increase score\r\n        }\r\n\r\n        members[msg.sender].campaignsAddr.push(_wallet);\r\n\r\n        // Create a log of this event\r\n        Voted(msg.sender, _wallet,  _supportsProposal, _comment);\r\n\r\n        if (campaigns[_wallet].numberOfVotes >= minimumQuorum) {\r\n            if (campaigns[_wallet].currentResult >= majorityMargin) {\r\n                // Proposal passed; remove from proposalsAddr and create campaign\r\n                uint rowToDelete = campaigns[_wallet].indexProposal;\r\n                address keyToMove   = proposalsAddr[proposalsAddr.length-1];\r\n                proposalsAddr[rowToDelete] = keyToMove;\r\n                campaigns[keyToMove].indexProposal = rowToDelete;\r\n                proposalsAddr.length--;\r\n\r\n                campaigns[_wallet].indexProposal = 0;\r\n                campaigns[_wallet].indexCampaign = campaignsAddr.push(_wallet) - 1;\r\n                campaigns[_wallet].isProposal = false;\r\n                campaigns[_wallet].isCampaign = true;\r\n                campaigns[_wallet].isFinishedCampaign = false;\r\n\r\n                ProposalPassed(msg.sender, campaigns[_wallet].owner, campaigns[_wallet].wallet, campaigns[_wallet].amount, campaigns[_wallet].description, campaigns[_wallet].link);\r\n            } else {\r\n                // Proposal failed\r\n                campaigns[_wallet].proposalRejected = true;\r\n            }\r\n        }\r\n\r\n        return campaigns[_wallet].numberOfVotes;\r\n    }\r\n\r\n    /**\r\n     * @dev Finish a campaign\r\n     * @param _wallet Beneficiary account address\r\n     * @param _raisedAmount Raised amount value in wei\r\n     * @param _report Report\r\n     */\r\n    function finishCampaign(\r\n        address _wallet,\r\n        uint256 _raisedAmount,\r\n        string _report\r\n    )\r\n    public\r\n    onlyMembers\r\n    returns (bool)\r\n    {\r\n        require(_wallet != 0x0);\r\n        require(!campaigns[_wallet].isProposal);\r\n        require(campaigns[_wallet].isCampaign);\r\n        require(!campaigns[_wallet].isFinishedCampaign);\r\n\r\n        require(campaigns[_wallet].voted[msg.sender]);\r\n        require(!campaigns[_wallet].proposalRejected);\r\n\r\n        // Campaign finished; remove from campaignsAddr and create finished campaign\r\n        uint rowToDelete = campaigns[_wallet].indexCampaign;\r\n        address keyToMove   = campaignsAddr[campaignsAddr.length-1];\r\n        campaignsAddr[rowToDelete] = keyToMove;\r\n        campaigns[keyToMove].indexCampaign = rowToDelete;\r\n        campaignsAddr.length--;\r\n\r\n        campaigns[_wallet].indexProposal = 0;\r\n        campaigns[_wallet].indexCampaign = 0;\r\n        campaigns[_wallet].indexFinishedCampaign = finishedCampaignsAddr.push(_wallet) - 1;\r\n        campaigns[_wallet].isProposal = false;\r\n        campaigns[_wallet].isCampaign = false;\r\n        campaigns[_wallet].isFinishedCampaign = true;\r\n\r\n        campaigns[_wallet].finishDate        = now;\r\n        campaigns[_wallet].raisedAmount      = _raisedAmount;\r\n        campaigns[_wallet].report            = _report;\r\n\r\n        members[msg.sender].finishedCampaignsAddr.push(_wallet);\r\n\r\n        FinishCampaign(msg.sender, _wallet, _raisedAmount, _report);\r\n        \r\n        return true;\r\n    }\r\n\r\n    /**\r\n     * @dev Verify a campaign\r\n     * @param _wallet Beneficiary account address\r\n     * @param _comment Comment\r\n     */\r\n//    function verifyCampaign(\r\n//        address _wallet,\r\n//        string _comment\r\n//    )\r\n//    public\r\n//    onlyMembers\r\n//    returns (bool)\r\n//    {\r\n//        require(_wallet != 0x0);\r\n//        require(!campaigns[_wallet].isProposal);\r\n//        require(campaigns[_wallet].isCampaign);\r\n//        require(!campaigns[_wallet].isFinishedCampaign);\r\n//\r\n//        require(!campaigns[_wallet].verified[msg.sender]);\r\n//\r\n//        campaigns[_wallet].verified[msg.sender] = true; // Set this voter as having verify\r\n//        campaigns[_wallet].verifiedAddr.push(msg.sender);\r\n//\r\n//        Vote memory v;\r\n//        v.wallet = _wallet;\r\n//        v.supportsProposal = true;\r\n//        v.sender = msg.sender;\r\n//        v.comment = _comment;\r\n//\r\n//        campaigns[_wallet].verifiedData[msg.sender] = v;\r\n//\r\n//        // Create a log of this event\r\n//        Verified(msg.sender, _wallet,  true, _comment);\r\n//\r\n//        return true;\r\n//    }\r\n}",
  "sourcePath": "c:\\work\\Hackaton\\daco_client\\contracts\\daco.sol",
  "compiler": {
    "name": "solc",
    "version": "0.4.23+commit.124ca40d.Emscripten.clang"
  },
  "schemaVersion": "2.0.0",
  "updatedAt": "2018-05-01T17:34:34.292Z"
}